:031E9700011E0029
:101D2600051ED3E51E9404748094804005E4F51ED8
:021D3600B200F9
:011D38002288
:101CA800121EDBEF6002C200200005120D848003C3
:061CB8001214E30210000B
:101AC000EFFD7C00C374809480400FD3ED940974C3
:101AD000809480500574302FFF22C3ED940AEC648B
:101AE0008094804010D3ED940FEC64809480500576
:081AF00074372FFF227FFF2253
:0B1E8100EF1FAC0670011E4C70F62233
:101BC400D3EF9400EE940040257D14EDD39400747B
:101BD40080948040127CC7ECD3940074809480403D
:0E1BE400031C80F31D80E4EF1F70D51E80D21D
:011BF20022D0
:03002700054E2261
:0D1E1B007B007A00794A12051B4F0205B6C4
:101CBE007B007A00794A12051B5F7004C201800214
:041CCE00D201A2019C
:011CD20022EF
:101D81007B007A00794A12051BFEEFF45E0205B66C
:03009F008F4D2260
:031ED800AF4D22E9
:031EDB00AF4F22E4
:0F1DD100E54F600A154FE54F7004FF12009F2287
:1013F2007B007A00794A8B098A0A890B900001E402
:101402001205C8E5805438F50864387010AB09AA93
:101412000AA90B12051B54FD1205B680157F027E28
:1014220000121BC4E5805438FF64386005E5086F7C
:101432006008AB09AA0AA90B805253A8DFE58054C1
:1014420038F50824E8602224F0601124F87028ABF3
:1014520009AA0AA90B90000174028018AB09AA0A12
:10146200A90B9000017401800BAB09AA0AA90B9089
:10147200000174031205C8AB09AA0AA90B90000166
:10148200120534FF70299000011205C812051B5481
:10149200FB1205B6AB09AA0AA90B12051B54F712D7
:1014A20005B6AB09AA0AA90B12051B54EF8028AB9B
:1014B20009AA0AA90B12051BFEC3135401701B9043
:1014C2000002EF1205C8EE44041205B6AB09AA0ADF
:1014D200A90B12051B44021205B6E4F5C043A8206D
:0114E20022E7
:101B94007B007A00794A12051BFF13135401640178
:101BA4007004F54E8018EF13131354017010E54EB2
:0F1BB4006402700A12051B44081205B6D322C33F
:011BC30022FF
:101B62007B007A00794A12051BFF131354016401AA
:101B72007004F54ED322EF13131354017010E54E87
:101B82006402700C12051B44081205B6D322D3223C
:011B9200C38F
:011B9300222F
:1012D0007B007A00794A8B088A09890A90000112FA
:1012E0000534FF7E00C39404748094804005EF7041
:1012F0000261F1AB08AA09A90A12051BFF131354D6
:101300003F20E009EF131313541F30E007E54D6051
:1013100003754F1490000112053424FE60611470AF
:101320000261D92402600261DCE54D700261DC12C9
:101330001B62400261DCAB08AA09A90A12051BFF67
:10134000131354016401700BE54D24EF70057F0801
:10135000121E35E54D24ED6012146014146016144D
:10136000601824047069121D5F8064121D12805F72
:10137000121BF3805A121C728055121DEF8050E52B
:101380004D6059121B625054AB08AA09A90A1205F4
:101390001BFF131354016401700BE54D24EF70051E
:1013A0007F08121E35E54D24ED60121460141460A0
:1013B0001614601824047017121E8C8012121E0D51
:1013C000800D1200038008121CE88003121E697F42
:1013D00004121E281216B28003121B94AB08AA092D
:1013E000A90A12051B54FB1205B67FB07E04121E1B
:0113F000D329
:0113F10022D9
:101885007B007A00794A900002120534FF9000022D
:10189500E41205C8EFFD7C00C39404748094804075
:1018A50003ED603DEF24FD6002802FE54D6022547D
:1018B5001064106005E4F54D8020754F14054DD377
:1018C500E54D9416748094804010E4F54DF54F80F5
:1018D50009754D12754F14121D4C7FB07E04121EF2
:0118E500D32F
:0118E60022DF
:101C550053A87F1219ED121EBC121EB4121E5C127F
:0D1C65001E4F43A880121C3712194480FB4B
:10077C00000000000000000000000000000000006D
:10078C00000000F800000000000000333000000002
:10079C0000100C06100C0600000000000000000009
:1007AC0040C07840C0784000043F04043F0404007B
:1007BC00007088FC08300000001820FF211E00008B
:1007CC00F008F000E018000000211C031E211E00A0
:1007DC0000F00888700000001E2123241927211026
:1007EC0010160E00000000000000000000000000C9
:1007FC00000000E018040200000000071820400070
:10080C0000020418E000000000402018070000005F
:10081C00404080F0804040000202010F01020200C3
:10082C00000000F0000000000101011F01010100A7
:10083C00000000000000000080B07000000000000C
:10084C000000000000000000000101010101010195
:10085C00000000000000000000303000000000002C
:10086C000000000080601804006018060100000001
:10087C0000E010080810E000000F102020100F00FE
:10088C00001010F8000000000020203F2020000085
:10089C0000700808088870000030282422213000DD
:1008AC0000300888884830000018202020110E00E5
:1008BC000000C02010F8000000070424243F24008E
:1008CC0000F80888880808000019212020110E0063
:1008DC0000E0108888180000000F112020110E0075
:1008EC0000380808C83808000000003F000000006D
:1008FC000070880808887000001C222121221C002E
:10090C0000E010080810E0000000312222110F0056
:10091C00000000C0C00000000000003030000000EB
:10092C00000000800000000000008060000000005B
:10093C000000804020100800000102040810200074
:10094C0040404040404040000404040404040400BF
:10095C000008102040800000002010080402010054
:10096C00007048080808F000000000303601000054
:10097C00C030C828E810E0000718272423140B0007
:10098C000000C038E0000000203C23020227382081
:10099C0008F8888888700000203F202020110E0065
:1009AC00C03008080808380007182020201008005C
:1009BC0008F808080810E000203F202020100F0045
:1009CC0008F88888E8081000203F20202320180011
:1009DC0008F88888E8081000203F20000300000079
:1009EC00C03008080838000007182020221E02001A
:1009FC0008F808000008F808203F210101213F20D9
:100A0C00000808F8080800000020203F2020000003
:100A1C0000000808F8080800C08080807F000000F3
:100A2C0008F888C028180800203F2001263820002C
:100A3C0008F8080000000000203F20202020300093
:100A4C0008F8F800F8F80800203F003F003F2000AD
:100A5C0008F830C00008F808203F200007183F00B5
:100A6C00E01008080810E0000F10202020100F00E4
:100A7C0008F808080808F000203F210101010000D7
:100A8C00E01008080810E0000F18242438504F001C
:100A9C0008F8888888887000203F2000030C3020DC
:100AAC0000708808080838000038202121221C001A
:100ABC00180808F8080818000000203F2000000063
:100ACC0008F808000008F808001F202020201F004C
:100ADC000878880000C83808000007380E010000AC
:100AEC00F80800F80008F800033C0700073C030076
:100AFC00081868808068180820302C03032C3020DC
:100B0C000838C800C83808000000203F200000004A
:100B1C0010080808C83808002038262120201800A2
:100B2C00000000FE020202000000007F4040400076
:100B3C00000C30C000000000000000010638C000AE
:100B4C0000020202FE000000004040407F00000056
:100B5C00000004020202040000000000000000007B
:100B6C000000000000000000808080808080808079
:100B7C000002020400000000000000000000000061
:100B8C0000008080808000000019242222223F2057
:100B9C0008F8008080000000003F112020110E009A
:100BAC000000008080800000000E11202020110029
:100BBC00000000808088F800000E112020103F20DB
:100BCC000000808080800000001F2222222213005F
:100BDC00008080F0888888180020203F20200000AA
:100BEC000000808080808000006B9494949360005F
:100BFC0008F8008080800000203F210000203F206A
:100C0C0000809898000000000020203F2020000069
:100C1C00000000809898000000C08080807F000059
:100C2C0008F8000080808000203F24022D30200036
:100C3C00000808F8000000000020203F20200000E1
:100C4C008080808080808000203F20003F20003FFB
:100C5C008080008080800000203F210000203F2009
:100C6C000000808080800000001F202020201F00BA
:100C7C00808000808000000080FFA12020110E00E9
:100C8C000000008080808000000E112020A0FF80DA
:100C9C00808080008080800020203F212000010087
:100CAC0000008080808080000033242424241900DC
:100CBC00008080E0808000000000001F20200000E9
:100CCC008080000000808000001F202020103F202A
:100CDC00808080000080808000010E3008060100BA
:100CEC0080800080008080800F300C030C300F005F
:100CFC0000808000808080000020312E0E3120008A
:100D0C00808080000080808080818E7018060100B9
:100D1C0000808080808080000021302C22213000D7
:100D2C0000000000807C020200000000003F4040F8
:100D3C0000000000FF00000000000000FF000000A9
:100D4C000002027C800000000040403F00000000D8
:100D5C000006010102020404000000000000000073
:100D6C0053756E4D6F6E5475655765645468754652
:080D7C0072695374610000006C
:091D91007FFA121D9AD2867FFA36
:071D9A00AE071FEE70FA22F4
:101D3900D287121D91C2877FFA121D9AC2867FFA35
:031D4900021D9ADE
:0F1DE000C287121D96D2877FFA121D9AD28622D1
:07199B00AB07121D397F7834
:0219A200AD078F
:1019A400C201E4FCECC39408748094805016C2868F
:1019B400ED30E704D2878002C287121D91ED25E045
:1019C400FD0C80E0C28653A17F121D91AF80EF54BD
:1019D4008064807002D2017FFA121D9AC28643A1EC
:0819E400807FFA121D9AA20196
:0119EC0022D8
:101DA10012199BE4FF1219A2AF031219A2021DE03E
:101DB10012199B7F401219A2AF031219A2021DE052
:031C1600FDAF0B14
:101C1900AA07ED44B0FF121DA1EA54F0C4540F44C1
:0E1C290010FF121DA1EA540F4401FF021DA17D
:05006E007FAE021DA1A0
:100F4C00D28B7F0A7E00121BC4C28B7F0A7E0012DA
:100F5C001BC4D28B7F0A7E00121BC47FAE121DA154
:100F6C00E4FF121DA17F10121DA17F40121DA17F55
:100F7C0081121DA17FFA121DA17FA1121DA17FC894
:100F8C00121DA17FA6121DA17FA8121DA17F3F12C9
:100F9C001DA17FD3121DA1E4FF121DA17FD5121D2F
:100FAC00A17F80121DA17FD9121DA17FF1121DA15D
:100FBC007FDA121DA17F12121DA17FDB121DA17FF2
:100FCC0040121DA17F20121DA17F02121DA17F8D39
:100FDC00121DA17F14121DA17FA4121DA17FA612A8
:0D0FEC001DA17FAF121DA1E4FDFF021C1925
:10100000E4F50BF50CF50974212509F8E624E0F563
:1010100008AD0CAF0B121C19E4FAEAC394087480F3
:1010200094805045E4F975F010E508A42AF582E4AF
:1010300035F0F583E582247CF582E5833407F5837A
:10104000E493F50A30E3027980E50A30E2034301D4
:1010500020E50A30E103430108E50A30E0034301DB
:1010600002AF01121DB10A80B1E50C04121C16E496
:10107000FAEAC39408748094805045E4F975F0103E
:10108000E508A42AF582E435F0F583E582247CF5B1
:1010900082E5833407F583E493F50A30E70279802B
:1010A000E50A30E603430120E50A30E50343010881
:1010B000E50A30E403430102AF01121DB10A80B119
:1010C000E50C2402121C16E4FAEAC3940874809416
:1010D000805045E4F975F010E508A42AF582E4355E
:1010E000F0F583E5822484F582E5833407F583E413
:1010F00093F50A30E3027980E50A30E203430120E8
:10110000E50A30E103430108E50A30E00343010248
:10111000AF01121DB10A80B1E50C2403FDAF0B1223
:101120001C19E4FAEAC39408748094805045E4F9E9
:1011300075F010E508A42AF582E435F0F583E58220
:101140002484F582E5833407F583E493F50A30E7D8
:10115000027980E50A30E603430120E50A30E50321
:10116000430108E50A30E403430102AF01121DB157
:101170000A80B17408250BF50B0509AF097E00EF55
:1011800064107005F50B750C04C3EF9420EE6480B9
:06119000948050020107EB
:011196002236
:100D8400121ED88F08120FF912051BF509900001E5
:100D9400120534F50A900002120534F50B90000395
:100DA400120534F50C900004120534F50D9000057D
:100DB400120534F50E900006120687F51085F00F23
:100DC400E4FFEFC3942074809480500974212FF8B9
:100DD40076200F80EDE508641470107F04121CD394
:100DE40040097F08121CBE504480007522327523CE
:100DF40030AE0FAF107C007D641205FC7E007F0ACC
:100E0400CFCDCFCECCCE1205FC121AC08F24AE0F9C
:100E1400AF107C007D641205FC7E007F0ACFCDCF2D
:100E2400CECCCE1205FCAF05121AC08F2575262D27
:100E3400E508641570107F04121CD340097F081262
:100E44001CBE501B8000E50E75F00A84FF121AC008
:100E54008F27E50E75F00A84AFF0121AC08F28753B
:100E6400292DE508641670107F04121CD340097FF5
:100E740008121CBE501B8000E50C75F00A84FF129A
:100E84001AC08F2AE50C75F00A84AFF0121AC08FCD
:100E94002BE50D75F003A4246CF582E4340DF58381
:100EA400E493F52DE50D75F003A4246DF582E43487
:100EB4000DF583E493F52EE50D75F003A4246EF58A
:100EC40082E4340DF583E493F52FE5086412701081
:100ED4007F04121CD340097F08121CBE501B8000E3
:100EE400E50B75F00A84FF121AC08F35E50B75F017
:100EF4000A84AFF0121AC08F3675373AE5086413C6
:100F040070107F04121CD340097F08121CBE501BB2
:100F14008000E50A75F00A84FF121AC08F38E50ACA
:100F240075F00A84AFF0121AC08F39753A3AE509A0
:100F340075F00A84FF121AC08F3BE50975F00A8424
:070F4400AFF0121AC08F3C50
:010F4B002283
:1014E300121EC98E0C8F0D121ECE8E0E8F0FE4FFAF
:1014F300EFC3942074809480500974212FF87620D0
:101503000F80EDAE0CAF0D7C007D641206518F0B86
:10151300AE0CAF0D7C007D641206518D0AC3E50C41
:1015230064809480500F75252DE50BF404F50BE5CD
:101533000AF404F50AE50B75F00A1204F9FF121A0E
:10154300C08F26E50B75F00A1204F9AFF0121AC02A
:101553008F2775282EE50A75F00A1204F9FF121A6F
:10156300C08F29E50A75F00A1204F9AFF0121AC008
:101573008F2A752B43AE0EAF0F7C007D641205FCE2
:101583008F09AE0EAF0F7C007D641205FC8D08E55C
:101593000975F00A84FF121AC08F36E50975F00A3F
:1015A30084AFF0121AC08F3775382EE50875F00A2C
:1015B30084FF121AC08F39E50875F00A84AFF01260
:0715C3001AC08F3A753B25A9
:0115CA0022FE
:0D1E4200001F1C1F1E1F1E1F1F1E1F1E1F26
:0D1E28007B007A00794112051B4F0205B6C0
:101CD3007B007A00794112051B5F7004C201800208
:041CE300D201A20187
:011CE70022DA
:0D1E35007B007A00794112051B6F0205B693
:101DC1007B007A00794112051BFEEFF45E0205B635
:0618E700AD47AF49AE4819
:0618ED008E0B8F0C8D0D27
:1018F300780F7C007D007BFF7A1E79427E007F0D8E
:101903001204D3E50D6402702DE50C5403700EAE82
:101913000BAF0CFC7D641205FCED4C700FAE0BAFEE
:101923000C7C017D901205FCED4C7005750E1D803D
:101933000D750E1C8008740F250DF8E6F50EAF0E1D
:011943002281
:070FF9007B007A007942221F
:101AF8007B007A007942900006740775F0E61207B9
:101B08002B90000574011205C8900003740112059A
:101B1800C890000274081205C8900001E41205C8B4
:071B2800E41205B60216B23B
:1015CB007B007A0079428B088A09890A740112051B
:1015DB0061AB08AA09A90A12051BC3943C74809439
:1015EB00805002C322AB08AA09A90AE41205B6ABC4
:1015FB0008AA09A90A9000010412058390000112A0
:10160B000534C3943C748094805002C322AB08AA67
:10161B0009A90A900001E41205C890000274011296
:10162B000583900002120534C39418748094805083
:10163B0002C322AB08AA09A90A900002E41205C84A
:10164B009000037401120583900006120687FFAE0B
:10165B00F0900005120534FD1218EDAB08AA09A98C
:10166B000A900003120534D39F4037900003740196
:10167B001205C89000057401120583900005120530
:10168B0034C3940D748094804018AB08AA09A90A3E
:10169B0090000574011205C8900006E475F0011264
:0616AB0006BF1216B2D3C7
:0116B1002216
:1016B200E4F50BF50CF50FFB7A007942F5118A126D
:1016C2008913900005120534FFC39403748094803B
:1016D200AB11AA12A9135018EF240CF50F900006B3
:1016E200120687AEF024FFF50CEE34FFF50B8013E3
:1016F200900005120534F50F900006120687F50CCE
:1017020085F00BAE0BAF0C7C007D641206518E0D82
:101712008F0EAE0BAF0C7C007D64120651AB05AA96
:10172200047C007D04AF03AE02120651EB2FFBAE28
:101732000DAF0E7C007D04120651EB2FF510AF0F9A
:10174200EF3395E0FEEF2401FFE43EFE7C007D1ABC
:101752001205EA7D0A120651E50E25E0FEC3E510E8
:101762009E2FFFAB11AA12A9139000031205342F6A
:1017720014F510FF3395E0FEEF248CFFE43EFE7C6F
:10178200007D071206518D10900004E5100205C875
:101D1200E4F5420543C3E543943C74809480400358
:041D2200E4F543227F
:0E1E0D00E4F5421543E543F4700375433B22B0
:101D5F000544C3E5449418748094804003E4F5442B
:011D6F002251
:0B1E8C001544E544F470037544172270
:0F1DEF001218E70545E545D39F400375450122CE
:0C1E69001545E54570051218E78F45226D
:101C72000547C3E547940D7480948040037547017E
:0B1C82001218E7E545C39F40028F45A4
:011C8D002234
:101CE8001547E547700375470C1218E7E545C39F8C
:041CF80040028F45D2
:011CFC0022C5
:101BF3000549E54970020548D39433E54894084004
:101C0300067548077549D01218E7E545C39F40029A
:021C13008F45FB
:011C150022AC
:10000300E54915497002154814FFAE48BE0709BFFC
:10001300CF067548087549331218E7E545C39F4075
:03002300028F4504
:0100260022B7
:031E9A00015000F4
:0B1CFD00D2887FFA121D08D2897FFAFE
:0A1D0800AE071FEE60030080F72213
:101D7000121CFDC2887FFA121D08C2897FFA021D5B
:011D8000085A
:0C1E7500C288121CFFD2887FFA021D08F0
:02181E00AD0714
:10182000C201E4FCECC3940874809480501BC2890C
:10183000A804ED088002C333D8FC30E704D28880C6
:1018400002C288121CFF0C80DB7FFA121D08C289BD
:10185000D2887FFA121D08121CFF53B1FE7DC8AF5B
:10186000051DEF600E7FFA121D08AF88EF5401705E
:10187000EED20143B101ED7002C201C2897FFA12BA
:041880001D08A2019C
:011884002241
:10007600E4FD53B1FEFCECC39408748094805013E5
:10008600121D04ED25E0FDAF88EF30E0010DC289B9
:080096000C80E343B101AF054A
:01009E00223F
:101C8E00C2887FFA121D08C289121CFFC2897FFA10
:0A1C9E00121D08D2887FFA021D080B
:061EC300121CFDC2892281
:081197008F088B098A0A890BFD
:10119F00121D707F8012181E400DAB09AA0AA90BF1
:1011AF0074AA75F0BB8030AF0812181E400DAB0942
:1011BF00AA0AA90B741275F034801C7F647E00128A
:1011CF001BC4121D707F8112181E400EAB09AA0A94
:1011DF00A90B743475F05602070C120076AB09AAEE
:1011EF000AA90BEF1205B6121C8E120076AB09AAD4
:1011FF000AA90B900001EF1205C8121C8E1200767F
:10120F008F12121EC3121E75AB09AA0AA90B9000EA
:10121F0001120534FD12051BF50CEDF50DE5086403
:10122F00E3AC0C604CE4120349E4FBFA79FA784220
:10123F0012019E8F118E108D0F8C0EE4FBFA7980A8
:10124F0078471202A7E4FBFA79C078C01200AD8F7D
:10125F00118E108D0F8C0EE4FFFE7DC87C42AB11FA
:10126F00AA10A90FA80E12019E1203828E538F543B
:10127F0022AD0DE41203497B527AB8792F784312CD
:10128F00019E8F118E108D0F8C0EE4FBFA798078F2
:10129F00471202A77B667A66793B78C21200AD8F40
:1012AF00118E108D0F8C0EE4FFFE7DC87C42AB11AA
:1012BF00AA10A90FA80E12019E1203828E518F52EF
:0112CF0022FC
:101B2F000550D3E550940A748094804025E4F55015
:101B3F00121EDBEF701CFB7A0079517FE3121197B5
:101B4F007F017E00121BC47B007A0079537FE51260
:021B5F001197DC
:011B61002261
:051EC900AE51AF5222F2
:051ECE00AE53AF5422E9
:031E9D00011F0022
:0D1E4F00E4F5A575A4FC75A75543A8202255
:081EB400E4F59AF599F59B2273
:101D4C00E4F5BB75BA4075BD7A75BC1143AA044362
:031D5C00BB802227
:0D1E5C0075968875890175898143AB042254
:071EBC0075C829E4F58A2234
:1019ED0075A1C775AC38E4F591F5DEF58075B1FFDD
:1019FD00F5ADF592F5DFF58875B9FFF5AEF593F513
:101A0D009075C1FFF5AFF59875C9FFF5A3F594F580
:101A1D00A075D1DF759520F5B0F5D3F5D2F5D5F5D7
:0D1A2D00D4F5D7F5D6F5EEF5EF75FF2822BC
:03002B0002002EA2
:10002E00C0E0C0F0C083C082C0D075D000C000C098
:10003E0001C002C003C004C005C006C0077F011284
:10004E001E1B75C000D007D006D005D004D003D03B
:10005E0002D001D000D0D0D082D083D0F0D0E03208
:03007300021A83EB
:101A8300C0E0C0F0C083C082C0D075D000C000C029
:101A930001C002C003C004C005C006C0077F011215
:101AA3001E1BD007D006D005D004D003D002D0012E
:0D1AB300D000D0D0D082D083D0F0D0E0326F
:0300A300021A3A04
:101A3A00C0E0C0F0C083C082C0D075D000C000C072
:0D1A4A0001C002C003C004C005C006C007F3
:101A5700051F7F05121E28E51F30E0057F02121EB5
:011A67002856
:101A6800D007D006D005D004D003D002D001D000D2
:0B1A7800D0D0D082D083D0F0D0E0327C
:051ED3008E1C8F1D2292
:0F1DFE00E51D451C6008E51D151D7002151C2212
:091EAB00121DD1121D26021DFEBC
:0A1EA100E51D451C700312006E22BF
:101C37007FE87E03121BC47FE87E03121E81121BFE
:0E1C47002F121AF8120F4C7FB07E04021ED32B
:101944007F01121CD340077F01121CBE50367F0159
:10195400121CD3500E7F01121DC1120027121EABA0
:10196400121EA17F01121CBE50177F01121D81128D
:1019740013F27F02121CBE50051212D080031218FB
:1019840085121CA87F02121CD3500B7F02121DC1AA
:071994001215CB121B2F22DC
:1000A6000203EEE86480F8E933E83360110460F097
:1000B600ED33EC337009E8FCE9FDEAFEEBFF2204C0
:1000C60060DED3EB9FEA9EE99DE8C2E78CF0C2F7BB
:1000D60095F0400CE8CCF8E9CDF9EACEFAEBCFFB87
:1000E6001203B985D0F05804700320D5B3E8047024
:1000F600075002B2D50203F892D5EC0460F7E4CCBF
:10010600C0E0C398F8603B94186008400DD0E0FB4F
:100116000203D0E4FBFAC9FC8028E830E406E4C90F
:10012600FBE4CAFCE830E305E4C9CACBFCE85407A3
:100136006010F8C3E913F9EA13FAEB13FBEC13FCAE
:10014600D8F130F52FC3E49CFCEF9BFFEE9AFEED51
:1001560099FDD0E0FBEF4E4D4C701222DB030203FB
:10016600F5EC2CFCEF33FFEE33FEED33FDED30E71F
:10017600EB0203D0EF2BFFEE3AFEED39FDD0E0FBAC
:1001860050130BBB00030203F8ED13FDEE13FEEF55
:0801960013FFEC13FC0203D07F
:10019E00EC4D6011E8497017ED33EC3304600DE45B
:1001AE00FCFFFEFD22E933E8330470F80203EE1281
:1001BE0003B958046009E4CC248150062850090282
:1001CE0003F82840030203F5C0E0EB4A7044B980FF
:1001DE0006D0E0FB0203E4EF4E701CBD8008EBFF7F
:1001EE00EAFEE9FD80EBE98DF0A4FEE5F002028760
:1001FE00E9CDF9EAFEEBFFEF89F0A4FCE5F0CE893C
:10020E00F0A42EFFE435F0CD89F0A42DFEE435F0F8
:10021E008067EF4E7005BD80D780C3EF8BF0A4AC26
:10022E00F0EE8BF0A42CFCE435F0F8EF8AF0A42C61
:10023E00E5F038FCE433CB8DF0A42CFCE5F03BF874
:10024E00EE8AF0A42CFCE5F038F8E433CF89F0A464
:10025E002CFCE5F038CF3400CE89F0A42FFFE5F06A
:10026E003EFEE433C98DF0A42EFEE5F039CD8AF0C2
:10027E00A42FFFE5F03EFEE43DFD33D0E0FB50073A
:10028E000BBB000F0203F8EC2CFCEF33FFEE33FE3A
:06029E00ED33FD0203D068
:1002A4000203F8EC5D046005E8590470030203EEF0
:1002B4001203B9580460F6EC4860F2EC7004FDFED9
:1002C400FF22C860DB2481C85009C398600250062D
:1002D4000203F59850CAF582E9294B4A7005AB82AE
:1002E4000203E475F0007C1A7880C3EF9BEE9AED6C
:1002F40099400DC3EF9BFFEE9AFEED99FDE842F0A5
:10030400DC23ACF0D0E0FFD0E0FED0E0FDAB8220F7
:10031400E7101BEB60BAEC2CFCEF33FFEE33FEED81
:1003240033FD0203D0E803F830E705C0F075F000B0
:10033400EF2FFFEE33FEED33FD40B830E7C280AA65
:1003440075F020800E75F010800575F0087D007E34
:10035400007F003392D530D503120758EC33401098
:10036400EF33FFEE33FEED33FDEC33FCD5F0ED223D
:0E037400E5F0247EA2D513CC92E7CDCEFF2279
:10038200EDD2E7CD33EC3392D524814006E4FFFE73
:10039200FDFC22FCE4CFCECDCC24E0501174FF80D2
:1003A200EDC3CC13CCCD13CDCE13CECF13CF04706F
:0703B200F030D5DE02075810
:1003B900E9D2E7C933E833F892D5EDD2E7CD33EC8A
:0703C90033FC5002B2D52203
:1003D000EC30E7100FBF000C0EBE00080DBD00048E
:1003E0000BEB6014A2D5EB13FCED92E7FD2274FF3A
:1003F000FCFDFEFF22E480F8A2D574FF13FC7D8093
:03040000E480EFA6
:0300000002179252
:0C179200787FE4F6D8FD7581550217D968
:10040300E709F608DFFA8046E709F208DFFA803EDB
:1004130088828C83E709F0A3DFFA8032E309F608C8
:10042300DFFA8078E309F208DFFA807088828C8330
:10043300E309F0A3DFFA806489828A83E0A3F608E4
:10044300DFFA805889828A83E0A3F208DFFA804CBE
:1004530080D280FA80C680D4806980F28033801095
:1004630080A680EA809A80A880DA80E280CA8033FE
:1004730089828A83ECFAE493A3C8C582C8CCC58376
:10048300CCF0A3C8C582C8CCC583CCDFE9DEE78046
:100493000D89828A83E493A3F608DFF9ECFAA9F0C5
:1004A300EDFB2289828A83ECFAE0A3C8C582C8CC1B
:1004B300C583CCF0A3C8C582C8CCC583CCDFEADE34
:1004C300E880DB89828A83E493A3F208DFF980CC96
:1004D30088F0EF60010E4E60C388F0ED2402B4048F
:1004E3000050B9F582EB2402B4040050AF23234536
:0604F30082239004537304
:1004F900C2D530F707B2D563F0FF05F030E70CB28B
:10050900D5F4048463F0FF05F080018430D502F44A
:020519000422BA
:10051B00BB010689828A83E0225002E722BBFE02DE
:09052B00E32289828A83E4932211
:10053400BB010CE58229F582E5833AF583E022507C
:1005440006E92582F8E622BBFE06E92582F8E222C6
:0D055400E58229F582E5833AF583E49322E0
:10056100BB010989828A83F8E028F022500327F72A
:1005710022BBFE05F8E328F3228A838982F8E493FB
:0205810028222E
:10058300BB010FF8E58229F582E5833AF583E0287C
:10059300F0225009C58229F8E58226F622BBFE091E
:1005A300C58229F8E22582F222F8EA2583F583E958
:0305B30093282268
:1005B600BB010689828A83F0225002F722BBFE0124
:0205C600F3221E
:1005C800F8BB010DE58229F582E5833AF583E8F069
:1005D800225006E92582C8F622BBFE05E92582C815
:0205E800F222FD
:1005EA00EF8DF0A4A8F0CF8CF0A428CE8DF0A42E25
:0205FA00FE22DF
:1005FC00BC000BBE0029EF8DF084FFADF022E4CCE3
:10060C00F875F008EF2FFFEE33FEEC33FCEE9DECAB
:10061C00984005FCEE9DFE0FD5F0E9E4CEFD22EDF1
:10062C00F8F5F0EE8420D21CFEADF075F008EF2F3B
:10063C00FFED33FD4007985006D5F0F222C398FD2C
:05064C000FD5F0EA22C9
:10065100C2D5EC30E709B2D5E4C39DFDE49CFCEEC4
:1006610030E715B2D5E4C39FFFE49EFE1205FCC33B
:10067100E49DFDE49CFC80031205FC30D507C3E436
:060681009FFFE49EFE2233
:10068700BB0110E58229F582E5833AF583E0F5F0B1
:10069700A3E0225009E92582F886F008E622BBFE8E
:1006A7000AE92582F8E2F5F008E222E5832AF583D4
:0806B700E993F5F0A3E9932299
:1006BF00BB010DC58229C582C5833AC58302076672
:1006CF005011C58229F808E5F026F618F5F0E582F5
:1006DF0036F622BBFE11C58229F808E225F0F5F0A7
:1006EF00F218E23582F222F8E58229F582E5832AB3
:0D06FF00F58374019325F0F5F0E4933822A3
:10070C00BB010A89828A83F0E5F0A3F0225006F738
:0F071C0009A7F01922BBFE06F3E5F009F3192235
:10072B00F8BB0111E58229F582E5833AF583E8F000
:10073B00E5F0A3F0225009E92582C8F608A6F022BD
:0D074B00BBFE09E92582C8F2E5F008F222A4
:0E075800C3E49FFFE49EFEE49DFDE49CFC22B2
:10179E00021C55E493A3F8E493A34003F68001F2F0
:1017AE0008DFF48029E493A3F85407240CC8C3334C
:1017BE00C4540F4420C8834004F456800146F6DF1B
:1017CE00E4800B0102040810204080901E97E47EF6
:1017DE00019360BCA3FF543F30E509541FFEE49310
:1017EE00A360010ECF54C025E060A840B8E493A3D7
:1017FE00FAE493A3F8E493A3C8C582C8CAC583CA02
:10180E00F0A3C8C582C8CAC583CADFE9DEE780BEB9
:011EA0000041
:10076600C5F0F8A3E028F0C5F0F8E582158270021E
:060776001583E038F022BB
:00000001FF
