:05006E008E568F5722A1
:0F1CFB00E55745566008E55715577002155622F4
:091DD500121D0A121C50021CFB35
:0A1DC100E55745567003121DEB2292
:101B43007FE87E03121AE67FE87E03121DAB121AAA
:0E1B530081121A4A120F4C7FB07E0402006EFF
:10185C007F01121BFD40077F01121BE850367F01F0
:10186C00121BFD500E7F01121CEB120027121DD50E
:10187C00121DC17F01121BE850177F01121CAB1205
:10188C0011397F02121BE850051215DE8003121A63
:10189C0013121BD27F02121BFD500B7F02121CEB8A
:0718AC00121312121A81222F
:031DCB00011F00F5
:101C5000051FD3E51F9404748094804005E4F51FAC
:021C6000B200D0
:011C6200225F
:101BD200121DFDEF6002C200200005120D84800379
:061BE20012122A02156533
:1019DB00EFFD7C00C374809480400FD3ED940974A9
:1019EB00809480500574302FFF22C3ED940AEC6471
:1019FB008094804010D3ED940FEC6480948050055C
:081A0B0074372FFF227FFF2238
:0B1DAB00EF1FAC0670011E4C70F6220A
:101AE600D3EF9400EE940040257D14EDD39400745A
:101AF60080948040127CC7ECD3940074809480401C
:0E1B0600031C80F31D80E4EF1F70D51E80D2FB
:011B140022AE
:03002700054E2261
:0D1D45007B007A00794A12051B4F0205B69B
:101BE8007B007A00794A12051B5F7004C2018002EB
:041BF800D201A20173
:011BFC0022C6
:101CAB007B007A00794A12051BFEEFF45E0205B643
:03009F008F4D2260
:031DFA00AF4D22C8
:031DFD00AF4F22C3
:0F1D0A00E54F600A154FE54F7004FF12009F224E
:101139007B007A00794A8B098A0A890B900001E4BD
:101149001205C8E5805438F50864387010AB09AA4F
:101159000AA90B12051B54FD1205B680157F027EE4
:1011690000121AE6E5805438FF64386005E5086F17
:101179006008AB09AA0AA90B805253A8DFE580547D
:1011890038F50824E8602224F0601124F87028ABAF
:1011990009AA0AA90B90000174028018AB09AA0ACE
:1011A900A90B9000017401800BAB09AA0AA90B9045
:1011B900000174031205C8AB09AA0AA90B90000122
:1011C900120534FF70299000011205C812051B543D
:1011D900FB1205B6AB09AA0AA90B12051B54F71293
:1011E90005B6AB09AA0AA90B12051B54EF8028AB57
:1011F90009AA0AA90B12051BFEC3135401701B90FF
:101209000002EF1205C8EE44041205B6AB09AA0A9A
:10121900A90B12051B44021205B6E4F5C043A82028
:0112290022A2
:101AB4007B007A00794A12051BFF13135401640159
:101AC4007004F54ED322EF13131354017010E54E36
:101AD4006402700C12051B44081205B6D322D322EB
:011AE400C33E
:011AE50022DE
:1016BA008B0B8A0C890DE54D6054121AB4504FAB4E
:1016CA000BAA0CA90D12051BFF1313540164017018
:1016DA000BE54D24EF70057F08121D79E54D24EDC9
:1016EA00601214601414601614601824047017121F
:1016FA001C898012121C3C800D1217D58008121BFF
:0F170A009C8003121D287F04121D6C1213F922FC
:101719008B0B8A0C890DE54D6054121AB4504FABEE
:101729000BAA0CA90D12051BFF13135401640170B8
:101739000BE54D24EF70057F08121D79E54D24ED69
:1017490060121460141460161460182404701712BF
:101759001DB68012121D37800D1200038008121C5D
:0F176900128003121D937F04121D6C1213F922BC
:1015DE007B007A00794A8B088A09890A90000112E9
:1015EE000534FF7E00C39404748094804003EF6042
:1015FE0051AB08AA09A90A12051BFF1313543F2069
:10160E00E009EF131313541F30E007E54D60037527
:10161E004F1490000112053424FE600804700E125F
:10162E0016BA8009AB08AA09A90A121719AB08AA9B
:10163E0009A90A12051B54FB1205B67FB07E0412CF
:02164E00006E2C
:011650002277
:101B1500E54D6020541064106004E4F54D22754FC6
:101B250014054DD3E54D941674809480400FE4F56B
:0E1B35004DF54F22754D12754F14121C632290
:101A13007B007A00794A900002120534FF9000029D
:101A2300E41205C8AC02AD01C3ED9404EC9400408C
:101A330004ED4C6011EF24FD60028003121B157F3F
:061A4300B07E0412006EEB
:011A4900227A
:101B7F0053A87F121908120FF91217F8121D5F12CE
:0D1B8F001D5243A880121B4312185C80FBFE
:031DCE00015800B9
:0D1D5200E4F5A575A4FC75A75543A8202253
:0817F800E4F59AF599F59B2236
:101C6300E4F5BB75BA4075BD7A75BC1143AA04434C
:031C7300BB802211
:0D1D5F0075968875890175898143AB042252
:070FF90075C829E4F58A2206
:1019080075A1C775AC38E4F591F5DEF58075B1FFC2
:10191800F5ADF592F5DFF58875B9FFF5AEF593F5F8
:101928009075C1FFF5AFF59875C9FFF5A3F594F566
:10193800A075D1DF759520F5B0F5D3F5D2F5D5F5BD
:0D194800D4F5D7F5D6F5EEF5EF75FF2822A2
:03002B0002002EA2
:10002E00C0E0C0F0C083C082C0D075D000C000C098
:10003E0001C002C003C004C005C006C0077F011284
:10004E001D4575C000D007D006D005D004D003D012
:10005E0002D001D000D0D0D082D083D0F0D0E03208
:0300730002199ED1
:10199E00C0E0C0F0C083C082C0D075D000C000C00F
:1019AE0001C002C003C004C005C006C0077F0112FB
:1019BE001D45D007D006D005D004D003D002D001EB
:0D19CE00D000D0D0D082D083D0F0D0E03255
:0300A300021955EA
:10195500C0E0C0F0C083C082C0D075D000C000C058
:0D19650001C002C003C004C005C006C007D9
:1019720005587F05121D6CE55830E0057F02121DE7
:011982006CF8
:10198300D007D006D005D004D003D002D001D000B8
:0B199300D0D0D082D083D0F0D0E03262
:10077C0053756E4D6F6E5475655765645468754648
:10078C00726953746100000000000000000000005A
:10079C000000000000000000000000F80000000055
:1007AC00000000333000000000100C06100C060096
:1007BC00000000000000000040C07840C0784000FD
:1007CC00043F04043F040400007088FC083000005F
:1007DC00001820FF211E0000F008F000E0180000B7
:1007EC0000211C031E211E0000F008887000000070
:1007FC001E2123241927211010160E0000000000C2
:10080C000000000000000000000000E018040200DE
:10081C00000000071820400000020418E00000004F
:10082C000040201807000000404080F0804040004D
:10083C000202010F01020200000000F000000000A3
:10084C000101011F01010100000000000000000077
:10085C0080B07000000000000000000000000000EC
:10086C000001010101010101000000000000000075
:10087C000030300000000000000000008060180410
:10088C00006018060100000000E010080810E000ED
:10089C00000F102020100F00001010F800000000B6
:1008AC000020203F202000000070080808887000FD
:1008BC00003028242221300000300888884830007D
:1008CC000018202020110E000000C02010F800009D
:1008DC0000070424243F240000F808888808080036
:1008EC000019212020110E0000E01088881800004B
:1008FC00000F112020110E0000380808C83808001D
:10090C000000003F0000000000708808088870009C
:10091C00001C222121221C0000E010080810E0001D
:10092C000000312222110F00000000C0C0000000A6
:10093C0000000030300000000000008000000000CB
:10094C0000008060000000000000804020100800C3
:10095C00000102040810200040404040404040008C
:10096C000404040404040400000810204080000067
:10097C000020100804020100007048080808F0006C
:10098C000000003036010000C030C828E810E0003C
:10099C000718272423140B000000C038E0000000C7
:1009AC00203C23020227382008F888888870000031
:1009BC00203F202020110E00C03008080808380005
:1009CC00071820202010080008F808080810E0007C
:1009DC00203F202020100F0008F88888E80810001D
:1009EC00203F20202320180008F88888E8081000F1
:1009FC00203F200003000000C03008080838000029
:100A0C0007182020221E020008F808000008F80829
:100A1C00203F210101213F20000808F808080000B0
:100A2C000020203F2020000000000808F8080800E3
:100A3C00C08080807F00000008F888C0281808005B
:100A4C00203F20012638200008F808000000000094
:100A5C00203F20202020300008F8F800F8F808008B
:100A6C00203F003F003F200008F830C00008F80885
:100A7C00203F200007183F00E01008080810E00095
:100A8C000F10202020100F0008F808080808F000AC
:100A9C00203F210101010000E01008080810E000CF
:100AAC000F18242438504F0008F888888888700064
:100ABC00203F2000030C3020007088080808380004
:100ACC000038202121221C00180808F808081800FA
:100ADC000000203F2000000008F808000008F8087B
:100AEC00001F202020201F000878880000C838082C
:100AFC00000007380E010000F80800F80008F800A4
:100B0C00033C0700073C030008186880806818083D
:100B1C0020302C03032C30200838C800C8380800BB
:100B2C000000203F2000000010080808C83808000A
:100B3C002038262120201800000000FE02020200AE
:100B4C000000007F40404000000C30C0000000005E
:100B5C00000000010638C00000020202FE00000086
:100B6C00004040407F00000000000402020204002C
:100B7C000000000000000000000000000000000069
:100B8C008080808080808080000202040000000051
:100B9C000000000000000000000080808080000049
:100BAC000019242222223F2008F800808000000037
:100BBC00003F112020110E000000008080800000FA
:100BCC00000E112020201100000000808088F80009
:100BDC00000E112020103F2000008080808000003B
:100BEC00001F222222221300008080F0888888189F
:100BFC000020203F202000000000808080808000AA
:100C0C00006B94949493600008F80080808000003E
:100C1C00203F210000203F20008098980000000019
:100C2C000020203F20200000000000809898000049
:100C3C0000C08080807F000008F800008080800069
:100C4C00203F24022D302000000808F8000000008E
:100C5C000020203F20200000808080808080800049
:100C6C00203F20003F20003F8080008080800000DB
:100C7C00203F210000203F20000080808080000069
:100C8C00001F202020201F0080800080800000009A
:100C9C0080FFA12020110E000000008080808000C9
:100CAC00000E112020A0FF808080800080808000BA
:100CBC0020203F21200001000000808080808000E7
:100CCC000033242424241900008080E0808000005C
:100CDC000000001F202000008080000000808000A9
:100CEC00001F202020103F2080808000008080800A
:100CFC0000010E300806010080800080008080809A
:100D0C000F300C030C300F000080800080808000BE
:100D1C000020312E0E3120008080800000808080E9
:100D2C0080818E7018060100008080808080800099
:100D3C000021302C2221300000000000807C0202B7
:100D4C0000000000003F404000000000FF000000D9
:100D5C0000000000FF0000000002027C8000000088
:100D6C000040403F000000000006010102020404A4
:080D7C0000000000000000006F
:091CBB007FFA121CC4D2867FFAE4
:071CC400AE071FEE70FA22CB
:101C7600D287121CBBC2877FFA121CC4C2867FFAA7
:031C8600021CC479
:0F1D1900C287121CC0D2877FFA121CC4D2862246
:0718B300AB07121C767F78E1
:0218BA00AD0778
:1018BC00C201E4FCECC39408748094805019C28675
:1018CC00ED548064807004D2878002C287121CBBE6
:1018DC00ED25E0FD0C80DDC28653A17F121CBBAF51
:1018EC0080EF548064807002D2017FFA121CC4C253
:0B18FC008643A1807FFA121CC4A201E9
:0119070022BD
:101CCB001218B3E4FF1218BAAF031218BA021D1997
:101CDB001218B37F401218BAAF031218BA021D19AB
:101B6100AA07ED44B0FF121CCBEA54F0C4540F4451
:0E1B710010FF121CCBEA540F4401FF021CCBE4
:051DEB007FAE021CCBDD
:100F4C00D28B7F0A7E00121AE6C28B7F0A7E0012B9
:100F5C001AE6D28B7F0A7E00121AE67FAE121CCBE9
:100F6C00E4FF121CCB7F10121CCB7F40121CCB7FDA
:100F7C0081121CCB7FFA121CCB7FA1121CCB7FC819
:100F8C00121CCB7FA6121CCB7FA8121CCB7F3F124E
:100F9C001CCB7FD3121CCBE4FF121CCB7FD5121CB5
:100FAC00CB7F80121CCB7FD9121CCB7FF1121CCBB8
:100FBC007FDA121CCB7F12121CCB7FDB121CCB7F77
:100FCC0040121CCB7F20121CCB7F02121CCB7F8DBE
:100FDC00121CCB7F14121CCB7FA4121CCB7FA6122D
:0D0FEC001CCB7FAF121CCBE4FDFF021B618C
:021800008B0D4E
:10180200121B61E4FAEAC3940874809480504AE49B
:10181200F50FEA250DFFE433FE74942FF582740769
:101822003EF583E493FF550E6003430F80E50EC33C
:1018320013F50E5F6003430F20E50EC313F50E5F31
:101842006003430F08E50EC313F50E5F6003430FF9
:0918520002AF0F121CDB0A80AC8E
:01185B00226A
:10156500E4F9F50AF50974212509F8E624E0F508FA
:10157500AF01C454F0FB750E08AD0A121800AF0197
:10158500E50A04FDE508C454F0FB750E8012180049
:10159500AF01E50A2402FDE508C454F02408FB75F3
:1015A5000E08121800AF01E50A2403FDE508C4542E
:1015B500F02408FB750E80121800740829F9050936
:1015C500AF097E00EF64107004F9750A04C3EF9447
:0815D50020EE64809480408E3A
:0115DD0022EB
:100D8400121DFA8F08121DDE12051BF509900001D1
:100D9400120534F50A900002120534F50B90000395
:100DA400120534F50C900004120534F50D9000057D
:100DB400120534F50E900006120687F51085F00F23
:100DC400E4FFEFC3942074809480500974212FF8B9
:100DD40076200F80EDE508641470107F04121BFD6B
:100DE40040097F08121BE8504480007522327523A5
:100DF40030AE0FAF107C007D641205FC7E007F0ACC
:100E0400CFCDCFCECCCE1205FC1219DB8F24AE0F82
:100E1400AF107C007D641205FC7E007F0ACFCDCF2D
:100E2400CECCCE1205FCAF051219DB8F2575262D0D
:100E3400E508641570107F04121BFD40097F081239
:100E44001BE8501B8000E50E75F00A84FF1219DBC5
:100E54008F27E50E75F00A84AFF01219DB8F287521
:100E6400292DE508641670107F04121BFD40097FCC
:100E740008121BE8501B8000E50C75F00A84FF1271
:100E840019DB8F2AE50C75F00A84AFF01219DB8F99
:100E94002BE50D75F003A4247CF582E43407F58377
:100EA400E493F52DE50D75F003A4247DF582E43477
:100EB40007F583E493F52EE50D75F003A4247EF580
:100EC40082E43407F583E493F52FE5086412701087
:100ED4007F04121BFD40097F08121BE8501B800091
:100EE400E50B75F00A84FF1219DB8F35E50B75F0FD
:100EF4000A84AFF01219DB8F3675373AE5086413AC
:100F040070107F04121BFD40097F08121BE8501B60
:100F14008000E50A75F00A84FF1219DB8F38E50AB0
:100F240075F00A84AFF01219DB8F39753A3AE50986
:100F340075F00A84FF1219DB8F3BE50975F00A840A
:070F4400AFF01219DB8F3C36
:010F4B002283
:10122A00121DF08E0C8F0D121DF58E0E8F0FE4FF1E
:10123A00EFC3942074809480500974212FF876208B
:10124A000F80EDAE0CAF0D7C007D641206518F0B42
:10125A00AE0CAF0D7C007D641206518D0AC3E50CFD
:10126A0064809480500F75252DE50BF404F50BE589
:10127A000AF404F50AE50B75F00A1204F9FF1219CB
:10128A00DB8F26E50B75F00A1204F9AFF01219DBB1
:10129A008F2775282EE50A75F00A1204F9FF12192C
:1012AA00DB8F29E50A75F00A1204F9AFF01219DB8F
:1012BA008F2A752B43AE0EAF0F7C007D641205FC9E
:1012CA008F09AE0EAF0F7C007D641205FC8D08E518
:1012DA000975F00A84FF1219DB8F36E50975F00AE1
:1012EA0084AFF01219DB8F3775382EE50875F00ACE
:1012FA0084FF1219DB8F39E50875F00A84AFF01202
:07130A0019DB8F3A753B254A
:0113110022B9
:0D1D8600001F1C1F1E1F1E1F1F1E1F1E1FE3
:0D1D6C007B007A00794112051B4F0205B67D
:101BFD007B007A00794112051B5F7004C2018002DF
:041C0D00D201A2015D
:011C110022B0
:0D1D79007B007A00794112051B6F0205B650
:101CEB007B007A00794112051BFEEFF45E0205B60C
:06177800AD47AF49AE4889
:06177E008E0E8F0F8D108E
:1017840078127C007D007BFF7A1D79867E007F0DB8
:101794001204D3E5106402702DE50F5403700EAEED
:1017A4000EAF0FFC7D641205FCED4C700FAE0EAF56
:1017B4000F7C017D901205FCED4C700575111D80A8
:1017C4000D75111C800874122510F8E6F511AF117F
:0117D40022F2
:071DDE007B007A007942222C
:101A4A007B007A007942900006740775F0E6120767
:101A5A002B90000574011205C89000037401120549
:101A6A00C890000274081205C8900001E41205C863
:071A7A00E41205B60213F9A6
:101312007B007A0079428B088A09890A74011205D6
:1013220061AB08AA09A90A12051BC3943C748094F4
:10133200805002C322AB08AA09A90AE41205B6AB7F
:1013420008AA09A90A90000104120583900001125B
:101352000534C3943C748094805002C322AB08AA23
:1013620009A90A900001E41205C890000274011252
:101372000583900002120534C3941874809480503F
:1013820002C322AB08AA09A90A900002E41205C806
:101392009000037401120583900006120687FFAEC7
:1013A200F0900005120534FD12177EAB08AA09A9B8
:1013B2000A900003120534D39F4037900003740152
:1013C2001205C890000574011205839000051205EC
:1013D20034C3940D748094804018AB08AA09A90AFA
:1013E20090000574011205C8900006E475F0011220
:0613F20006BF1213F9D33F
:0113F80022D2
:1013F900E4F50EF50FF512FB7A007942F5148A151A
:101409008916900005120534FFC3940374809480F3
:10141900AB14AA15A9165018EF240CF51290000662
:10142900120687AEF024FFF50FEE34FFF50E801398
:10143900900005120534F512900006120687F50F83
:1014490085F00EAE0EAF0F7C007D641206518E1032
:101459008F11AE0EAF0F7C007D64120651AB05AA49
:10146900047C007D04AF03AE02120651EB2FFBAEE4
:1014790010AF117C007D04120651EB2FF513AF124A
:10148900EF3395E0FEEF2401FFE43EFE7C007D1A78
:101499001205EA7D0A120651E51125E0FEC3E5139E
:1014A9009E2FFFAB14AA15A9169000031205342F1D
:1014B90014F513FF3395E0FEEF248CFFE43EFE7C28
:1014C900007D071206518D13900004E5130205C82B
:101C3C00E4F5420543C3E543943C7480948040032F
:041C4C00E4F5432256
:0E1D3700E4F5421543E543F4700375433B2287
:101C89000544C3E5449418748094804003E4F54402
:011C99002228
:0B1DB6001544E544F470037544172247
:0F1D28001217780545E545D39F40037545012205
:0C1D93001545E54570051217788F4522B4
:101B9C000547C3E547940D74809480400375470155
:0B1BAC00121778E545C39F40028F45EB
:011BB700220B
:101C12001547E547700375470C121778E545C39FD2
:041C220040028F45A8
:011C2600229B
:1017D5000549E54970020548D39433E54894084026
:1017E500067548077549D0121778E545C39F40022D
:0217F5008F451E
:0117F70022CF
:10000300E54915497002154814FFAE48BE0709BFFC
:10001300CF06754808754933121778E545C39F40E5
:03002300028F4504
:0100260022B7
:031DD100015000BE
:0B1C2700D2887FFA121C32D2897FFAAB
:0A1C3200AE071FEE60030080F722EA
:101C9A00121C27C2887FFA121C32C2897FFA021CE0
:011CAA003207
:0C1D9F00C288121C29D2887FFA021C3274
:02165100AD07E3
:10165300C201E4FCECC3940874809480501BC289DB
:10166300A804ED088002C333D8FC30E704D2888095
:1016730002C288121C290C80DB7FFA121C32C28939
:10168300D2887FFA121C32121C2953B1FE7DC8ED99
:1016930060137FFA121C32AF88EF54017004D20139
:1016A30080031D80EA43B101ED7002C201C2897F4C
:0616B300FA121C32A20134
:0116B900220E
:10007600E4FD53B1FEFCECC39408748094805013E5
:10008600121C2EED25E0FDAF88EF30E0010DC28990
:080096000C80E343B101AF054A
:01009E00223F
:101BB800C2887FFA121C32C289121C29C2897FFA94
:0A1BC800121C32D2887FFA021C3290
:061DE500121C27C2892236
:081000008F088B098A0A890B95
:10100800121C9A7F80121651400DAB09AA0AA90B2F
:1010180074AA75F0BB8030AF08121651400DAB09A9
:10102800AA0AA90B741275F034801C7F647E001222
:101038001AE6121C9A7F81121651400EAB09AA0AB1
:10104800A90B743475F05602070C120076AB09AA86
:101058000AA90BEF1205B6121BB8120076AB09AA43
:101068000AA90B900001EF1205C8121BB8120076EE
:101078008F0C121DE5121D9FAB09AA0AA90B90003F
:1010880001120534FD12051BF50DEDF50EE508649A
:10109800E3AC0D604CE4120349E4FBFA79FA7842B8
:1010A80012019E8F128E118D108C0FE4FBFA79803D
:1010B80078471202A7E4FBFA79C078C01200AD8F16
:1010C800128E118D108C0FE4FFFE7DC87C42AB128E
:1010D800AA11A910A80F12019E1203828E538F54D1
:1010E80022AD0EE41203497B527AB8792F78431265
:1010F800019E8F128E118D108C0FE4FBFA79807887
:10110800471202A77B667A66793B78C21200AD8FD8
:10111800128E118D108C0FE4FFFE7DC87C42AB123D
:10112800AA11A910A80F12019E1203828E518F5284
:011138002294
:101A81000550D3E550940A748094804025E4F550C4
:101A9100121DFDEF701CFB7A0079517FE3121000DB
:101AA1007F017E00121AE67B007A0079537FE512EE
:021AB100100023
:011AB3002210
:051DF000AE51AF5222CC
:051DF500AE53AF5422C3
:1000A6000203EEE86480F8E933E83360110460F097
:1000B600ED33EC337009E8FCE9FDEAFEEBFF2204C0
:1000C60060DED3EB9FEA9EE99DE8C2E78CF0C2F7BB
:1000D60095F0400CE8CCF8E9CDF9EACEFAEBCFFB87
:1000E6001203B985D0F05804700320D5B3E8047024
:1000F600075002B2D50203F892D5EC0460F7E4CCBF
:10010600C0E0C398F8603B94186008400DD0E0FB4F
:100116000203D0E4FBFAC9FC8028E830E406E4C90F
:10012600FBE4CAFCE830E305E4C9CACBFCE85407A3
:100136006010F8C3E913F9EA13FAEB13FBEC13FCAE
:10014600D8F130F52FC3E49CFCEF9BFFEE9AFEED51
:1001560099FDD0E0FBEF4E4D4C701222DB030203FB
:10016600F5EC2CFCEF33FFEE33FEED33FDED30E71F
:10017600EB0203D0EF2BFFEE3AFEED39FDD0E0FBAC
:1001860050130BBB00030203F8ED13FDEE13FEEF55
:0801960013FFEC13FC0203D07F
:10019E00EC4D6011E8497017ED33EC3304600DE45B
:1001AE00FCFFFEFD22E933E8330470F80203EE1281
:1001BE0003B958046009E4CC248150062850090282
:1001CE0003F82840030203F5C0E0EB4A7044B980FF
:1001DE0006D0E0FB0203E4EF4E701CBD8008EBFF7F
:1001EE00EAFEE9FD80EBE98DF0A4FEE5F002028760
:1001FE00E9CDF9EAFEEBFFEF89F0A4FCE5F0CE893C
:10020E00F0A42EFFE435F0CD89F0A42DFEE435F0F8
:10021E008067EF4E7005BD80D780C3EF8BF0A4AC26
:10022E00F0EE8BF0A42CFCE435F0F8EF8AF0A42C61
:10023E00E5F038FCE433CB8DF0A42CFCE5F03BF874
:10024E00EE8AF0A42CFCE5F038F8E433CF89F0A464
:10025E002CFCE5F038CF3400CE89F0A42FFFE5F06A
:10026E003EFEE433C98DF0A42EFEE5F039CD8AF0C2
:10027E00A42FFFE5F03EFEE43DFD33D0E0FB50073A
:10028E000BBB000F0203F8EC2CFCEF33FFEE33FE3A
:06029E00ED33FD0203D068
:1002A4000203F8EC5D046005E8590470030203EEF0
:1002B4001203B9580460F6EC4860F2EC7004FDFED9
:1002C400FF22C860DB2481C85009C398600250062D
:1002D4000203F59850CAF582E9294B4A7005AB82AE
:1002E4000203E475F0007C1A7880C3EF9BEE9AED6C
:1002F40099400DC3EF9BFFEE9AFEED99FDE842F0A5
:10030400DC23ACF0D0E0FFD0E0FED0E0FDAB8220F7
:10031400E7101BEB60BAEC2CFCEF33FFEE33FEED81
:1003240033FD0203D0E803F830E705C0F075F000B0
:10033400EF2FFFEE33FEED33FD40B830E7C280AA65
:1003440075F020800E75F010800575F0087D007E34
:10035400007F003392D530D503120758EC33401098
:10036400EF33FFEE33FEED33FDEC33FCD5F0ED223D
:0E037400E5F0247EA2D513CC92E7CDCEFF2279
:10038200EDD2E7CD33EC3392D524814006E4FFFE73
:10039200FDFC22FCE4CFCECDCC24E0501174FF80D2
:1003A200EDC3CC13CCCD13CDCE13CECF13CF04706F
:0703B200F030D5DE02075810
:1003B900E9D2E7C933E833F892D5EDD2E7CD33EC8A
:0703C90033FC5002B2D52203
:1003D000EC30E7100FBF000C0EBE00080DBD00048E
:1003E0000BEB6014A2D5EB13FCED92E7FD2274FF3A
:1003F000FCFDFEFF22E480F8A2D574FF13FC7D8093
:03040000E480EFA6
:030000000214D90E
:0C14D900787FE4F6D8FD758158021520DC
:10040300E709F608DFFA8046E709F208DFFA803EDB
:1004130088828C83E709F0A3DFFA8032E309F608C8
:10042300DFFA8078E309F208DFFA807088828C8330
:10043300E309F0A3DFFA806489828A83E0A3F608E4
:10044300DFFA805889828A83E0A3F208DFFA804CBE
:1004530080D280FA80C680D4806980F28033801095
:1004630080A680EA809A80A880DA80E280CA8033FE
:1004730089828A83ECFAE493A3C8C582C8CCC58376
:10048300CCF0A3C8C582C8CCC583CCDFE9DEE78046
:100493000D89828A83E493A3F608DFF9ECFAA9F0C5
:1004A300EDFB2289828A83ECFAE0A3C8C582C8CC1B
:1004B300C583CCF0A3C8C582C8CCC583CCDFEADE34
:1004C300E880DB89828A83E493A3F208DFF980CC96
:1004D30088F0EF60010E4E60C388F0ED2402B4048F
:1004E3000050B9F582EB2402B4040050AF23234536
:0604F30082239004537304
:1004F900C2D530F707B2D563F0FF05F030E70CB28B
:10050900D5F4048463F0FF05F080018430D502F44A
:020519000422BA
:10051B00BB010689828A83E0225002E722BBFE02DE
:09052B00E32289828A83E4932211
:10053400BB010CE58229F582E5833AF583E022507C
:1005440006E92582F8E622BBFE06E92582F8E222C6
:0D055400E58229F582E5833AF583E49322E0
:10056100BB010989828A83F8E028F022500327F72A
:1005710022BBFE05F8E328F3228A838982F8E493FB
:0205810028222E
:10058300BB010FF8E58229F582E5833AF583E0287C
:10059300F0225009C58229F8E58226F622BBFE091E
:1005A300C58229F8E22582F222F8EA2583F583E958
:0305B30093282268
:1005B600BB010689828A83F0225002F722BBFE0124
:0205C600F3221E
:1005C800F8BB010DE58229F582E5833AF583E8F069
:1005D800225006E92582C8F622BBFE05E92582C815
:0205E800F222FD
:1005EA00EF8DF0A4A8F0CF8CF0A428CE8DF0A42E25
:0205FA00FE22DF
:1005FC00BC000BBE0029EF8DF084FFADF022E4CCE3
:10060C00F875F008EF2FFFEE33FEEC33FCEE9DECAB
:10061C00984005FCEE9DFE0FD5F0E9E4CEFD22EDF1
:10062C00F8F5F0EE8420D21CFEADF075F008EF2F3B
:10063C00FFED33FD4007985006D5F0F222C398FD2C
:05064C000FD5F0EA22C9
:10065100C2D5EC30E709B2D5E4C39DFDE49CFCEEC4
:1006610030E715B2D5E4C39FFFE49EFE1205FCC33B
:10067100E49DFDE49CFC80031205FC30D507C3E436
:060681009FFFE49EFE2233
:10068700BB0110E58229F582E5833AF583E0F5F0B1
:10069700A3E0225009E92582F886F008E622BBFE8E
:1006A7000AE92582F8E2F5F008E222E5832AF583D4
:0806B700E993F5F0A3E9932299
:1006BF00BB010DC58229C582C5833AC58302076672
:1006CF005011C58229F808E5F026F618F5F0E582F5
:1006DF0036F622BBFE11C58229F808E225F0F5F0A7
:1006EF00F218E23582F222F8E58229F582E5832AB3
:0D06FF00F58374019325F0F5F0E4933822A3
:10070C00BB010A89828A83F0E5F0A3F0225006F738
:0F071C0009A7F01922BBFE06F3E5F009F3192235
:10072B00F8BB0111E58229F582E5833AF583E8F000
:10073B00E5F0A3F0225009E92582C8F608A6F022BD
:0D074B00BBFE09E92582C8F2E5F008F222A4
:0E075800C3E49FFFE49EFEE49DFDE49CFC22B2
:1014E500021B7FE493A3F8E493A34003F68001F283
:1014F50008DFF48029E493A3F85407240CC8C33308
:10150500C4540F4420C8834004F456800146F6DFD6
:10151500E4800B0102040810204080901DCBE47E7E
:10152500019360BCA3FF543F30E509541FFEE493CB
:10153500A360010ECF54C025E060A840B8E493A392
:10154500FAE493A3F8E493A3C8C582C8CAC583CABD
:10155500F0A3C8C582C8CAC583CADFE9DEE780BE75
:011DD400000E
:10076600C5F0F8A3E028F0C5F0F8E582158270021E
:060776001583E038F022BB
:00000001FF
