:051E3A008E568F5722B7
:0F1D3B00E55745566008E55715577002155622B3
:091E1500121D4A121C90021D3B33
:0A1E0100E55745567003121E3F22FC
:101B6D007FE87E03120FD17FE87E03121DEB121A60
:0E1B7D00A5121A3C120F247FB07E04021E3AFD
:10166A007F01121C3D40077F01121C2850367F0162
:10167A00121C3D500E7F01121D2B120027121E153F
:10168A00121E017F01121C2850177F01121CEB1237
:10169A000D437F02121C2850051213BD8003121A33
:1016AA0005121BFC7F02121C3D500B7F02121D2BE0
:0716BA00121000121AA52214
:031E0B00011F00B4
:101C9000051FD3E51F9404748094804005E4F51F6C
:021CA000B2028E
:011CA200221F
:101BFC00121E51EF6002C202200205121610800361
:061C0C00121B4E0212D073
:1019CD00EFFD7C00C374809480400FD3ED940974B7
:1019DD00809480500574302FFF22C3ED940AEC647F
:1019ED008094804010D3ED940FEC6480948050056A
:0819FD0074372FFF227FFF2247
:0B1DEB00EF1FAC0670011E4C70F622CA
:100FD100D3EF9400EE940040257D14EDD39400747A
:100FE10080948040127CC7ECD3940074809480403C
:0E0FF100031C80F31D80E4EF1F70D51E80D21C
:010FFF0022CF
:03002700054E2261
:0D1D85007B007A00794A1204F94F020594A0
:101C28007B007A00794A1204F95F7004C2018002CD
:041C3800D201A20132
:011C3C002285
:101CEB007B007A00794A1204F9FEEFF45E02059448
:030070008F4D228F
:031E4E00AF4D2273
:031E5100AF4F226E
:0F1D4A00E54F600A154FE54F7004FF120070223D
:100D43007B007A00794A8B098A0A890B900001E4B7
:100D53001205A6E5805438F50864387010AB09AA6B
:100D63000AA90B1204F954FD12059480157F027E23
:100D730000120FD1E5805438FF64386005E5086F31
:100D83006008AB09AA0AA90B805253A8DFE5805477
:100D930038F50824E8602224F0601124F87028ABA9
:100DA30009AA0AA90B90000174028018AB09AA0AC8
:100DB300A90B9000017401800BAB09AA0AA90B903F
:100DC300000174031205A6AB09AA0AA90B9000013E
:100DD300120512FF70299000011205A61204F9549E
:100DE300FB120594AB09AA0AA90B1204F954F712D2
:100DF3000594AB09AA0AA90B1204F954EF8028AB96
:100E030009AA0AA90B1204F9FEC3135401701B901B
:100E13000002EF1205A6EE4404120594AB09AA0AD8
:100E2300A90B1204F94402120594E4F5C043A82067
:010E3300229C
:101A73007B007A00794A1204F9FF131354016401BD
:101A83007004F54ED322EF13131354017010E54E77
:101A93006402700C1204F94408120594D322D32271
:011AA300C37F
:011AA400221F
:101499008B0B8A0C890DE54D6054121A73504FABB2
:1014A9000BAA0CA90D1204F9FF131354016401705E
:1014B9000BE54D24EF70057F08121DB9E54D24EDAC
:1014C9006012146014146016146018240470171242
:1014D9001CC98012121C7C800D121B2B8008121B48
:0F14E900C68003121D687F04121DAC1210E7228B
:1014F8008B0B8A0C890DE54D6054121A73504FAB53
:101508000BAA0CA90D1204F9FF13135401640170FE
:101518000BE54D24EF70057F08121DB9E54D24ED4C
:1015280060121460141460161460182404701712E2
:101538001DF68012121D77800D1200038008121C00
:0F154800528003121DD37F04121DAC1210E72234
:1013BD007B007A00794A8B088A09890A900001120C
:1013CD000512FF7E00C39404748094804003EF6087
:1013DD0051AB08AA09A90A1204F9FF1313543F20AF
:1013ED00E009EF131313541F30E007E54D6003754B
:1013FD004F1490000112051224FE600804700E12A5
:10140D0014998009AB08AA09A90A1214F8AB08AA05
:10141D0009A90A1204F954FB1205947FB07E041237
:02142D001E3A65
:01142F00229A
:101AD400E54D6020541064106004E4F54D22754F08
:101AE40014054DD3E54D941674809480400FE4F5AD
:0E1AF4004DF54F22754D12754F14121CA32292
:101A05007B007A00794A900002120512FF900002CD
:101A1500E41205A6AC02AD01C3ED9404EC940040BC
:101A250004ED4C6011EF24FD60028003121AD47F8F
:061A3500B07E04121E3A0F
:011A3B002288
:101BA90053A87F1218FA121E26121E1E121D9F120A
:0D1BB9001D9243A880121B6D12166A80FB5E
:031E0E0001580078
:0D1D9200E4F5A575A4FC75A75543A8202213
:081E1E00E4F59AF599F59B2209
:101CA300E4F5BB75BA4075BD7A75BC1143AA04430C
:031CB300BB8022D1
:0D1D9F0075968875890175898143AB042212
:071E260075C829E4F58A22CA
:1018FA0075A1C775AC38E4F591F5DEF58075B1FFD1
:10190A00F5ADF592F5DFF58875B9FFF5AEF593F506
:10191A009075C1FFF5AFF59875C9FFF5A3F594F574
:10192A00A075D1DF759520F5B0F5D3F5D2F5D5F5CB
:0D193A00D4F5D7F5D6F5EEF5EF75FF2822B0
:03002B000217C0F9
:1017C000C0E0C0F0C083C082C0D075D000C000C0EF
:1017D00001C002C003C004C005C006C0077F0112DB
:1017E0001D8575C000D007D006D005D004D003D029
:1017F00002D001D000D0D0D082D083D0F0D0E0325F
:03007300021990DF
:10199000C0E0C0F0C083C082C0D075D000C000C01D
:1019A00001C002C003C004C005C006C0077F011209
:1019B0001D85D007D006D005D004D003D002D001B9
:0D19C000D000D0D0D082D083D0F0D0E03263
:0300A300021947F8
:10194700C0E0C0F0C083C082C0D075D000C000C066
:0D19570001C002C003C004C005C006C007E7
:1019640005587F05121DACE55830E0057F02121DB5
:01197400ACC6
:10197500D007D006D005D004D003D002D001D000C6
:0B198500D0D0D082D083D0F0D0E03270
:10073B0053756E4D6F6E5475655765645468754689
:10074B00726953746100000000000000000000009B
:10075B000000000000000000000000F80000000096
:10076B00000000333000000000100C06100C0600D7
:10077B00000000000000000040C07840C07840003E
:10078B00043F04043F040400007088FC08300000A0
:10079B00001820FF211E0000F008F000E0180000F8
:1007AB0000211C031E211E0000F0088870000000B1
:1007BB001E2123241927211010160E000000000003
:1007CB000000000000000000000000E01804020020
:1007DB00000000071820400000020418E000000091
:1007EB000040201807000000404080F0804040008F
:1007FB000202010F01020200000000F000000000E5
:10080B000101011F010101000000000000000000B8
:10081B0080B070000000000000000000000000002D
:10082B0000010101010101010000000000000000B6
:10083B000030300000000000000000008060180451
:10084B00006018060100000000E010080810E0002E
:10085B00000F102020100F00001010F800000000F7
:10086B000020203F2020000000700808088870003E
:10087B0000302824222130000030088888483000BE
:10088B000018202020110E000000C02010F80000DE
:10089B0000070424243F240000F808888808080077
:1008AB000019212020110E0000E01088881800008C
:1008BB00000F112020110E0000380808C83808005E
:1008CB000000003F000000000070880808887000DE
:1008DB00001C222121221C0000E010080810E0005F
:1008EB000000312222110F00000000C0C0000000E8
:1008FB00000000303000000000000080000000000D
:10090B000000806000000000000080402010080004
:10091B0000010204081020004040404040404000CD
:10092B0004040404040404000008102040800000A8
:10093B000020100804020100007048080808F000AD
:10094B000000003036010000C030C828E810E0007D
:10095B000718272423140B000000C038E000000008
:10096B00203C23020227382008F888888870000072
:10097B00203F202020110E00C03008080808380046
:10098B00071820202010080008F808080810E000BD
:10099B00203F202020100F0008F88888E80810005E
:1009AB00203F20202320180008F88888E808100032
:1009BB00203F200003000000C0300808083800006A
:1009CB0007182020221E020008F808000008F8086B
:1009DB00203F210101213F20000808F808080000F2
:1009EB000020203F2020000000000808F808080025
:1009FB00C08080807F00000008F888C0281808009D
:100A0B00203F20012638200008F8080000000000D5
:100A1B00203F20202020300008F8F800F8F80800CC
:100A2B00203F003F003F200008F830C00008F808C6
:100A3B00203F200007183F00E01008080810E000D6
:100A4B000F10202020100F0008F808080808F000ED
:100A5B00203F210101010000E01008080810E00010
:100A6B000F18242438504F0008F8888888887000A5
:100A7B00203F2000030C3020007088080808380045
:100A8B000038202121221C00180808F8080818003B
:100A9B000000203F2000000008F808000008F808BC
:100AAB00001F202020201F000878880000C838086D
:100ABB00000007380E010000F80800F80008F800E5
:100ACB00033C0700073C030008186880806818087F
:100ADB0020302C03032C30200838C800C8380800FD
:100AEB000000203F2000000010080808C83808004C
:100AFB002038262120201800000000FE02020200F0
:100B0B000000007F40404000000C30C0000000009F
:100B1B00000000010638C00000020202FE000000C7
:100B2B00004040407F00000000000402020204006D
:100B3B0000000000000000000000000000000000AA
:100B4B008080808080808080000202040000000092
:100B5B00000000000000000000008080808000008A
:100B6B000019242222223F2008F800808000000078
:100B7B00003F112020110E0000000080808000003B
:100B8B00000E112020201100000000808088F8004A
:100B9B00000E112020103F2000008080808000007C
:100BAB00001F222222221300008080F088888818E0
:100BBB000020203F202000000000808080808000EB
:100BCB00006B94949493600008F800808080000080
:100BDB00203F210000203F2000809898000000005B
:100BEB000020203F2020000000000080989800008B
:100BFB0000C08080807F000008F8000080808000AB
:100C0B00203F24022D302000000808F800000000CF
:100C1B000020203F2020000080808080808080008A
:100C2B00203F20003F20003F80800080808000001C
:100C3B00203F210000203F200000808080800000AA
:100C4B00001F202020201F008080008080000000DB
:100C5B0080FFA12020110E0000000080808080000A
:100C6B00000E112020A0FF808080800080808000FB
:100C7B0020203F2120000100000080808080800028
:100C8B000033242424241900008080E0808000009D
:100C9B000000001F202000008080000000808000EA
:100CAB00001F202020103F2080808000008080804B
:100CBB0000010E30080601008080008000808080DB
:100CCB000F300C030C300F00008080008080800000
:100CDB000020312E0E31200080808000008080802B
:100CEB0080818E70180601000080808080808000DB
:100CFB000021302C2221300000000000807C0202F9
:100D0B0000000000003F404000000000FF0000001A
:100D1B0000000000FF0000000002027C80000000C9
:100D2B000040403F000000000006010102020404E5
:080D3B000000000000000000B0
:091CFB007FFA121D04D2867FFA63
:071D0400AE071FEE70FA228A
:101CB600D287121CFBC2877FFA121D04C2867FFAE6
:031CC600021D04F8
:0F1D5900C287121D00D2877FFA121D04D2862284
:0716C100AB07121CB67F7895
:0216C800AD076C
:1016CA00C200E4FCECC39408748094805019C2866A
:1016DA00ED548064807004D2878002C287121CFB9A
:1016EA00ED25E0FD0C80DDC28653A17F121CFBAF05
:1016FA0080EF548064807002D2007FFA121D04C207
:0B170A008643A1807FFA121D04A2009C
:0117150022B1
:101D0B001216C1E4FF1216C8AF031216C8021D59F2
:101D1B001216C17F401216C8AF031216C8021D5906
:101B8B00AA07ED44B0FF121D0BEA54F0C4540F44E6
:0E1B9B0010FF121D0BEA540F4401FF021D0B38
:051E3F007FAE021D0B47
:100F2400D28B7F0A7E00120FD1C28B7F0A7E001201
:100F34000FD1D28B7F0A7E00120FD17FAE121D0B10
:100F4400E4FF121D0B7F10121D0B7F40121D0B7F3F
:100F540081121D0B7FFA121D0B7FA1121D0B7FC87E
:100F6400121D0B7FA6121D0B7FA8121D0B7F3F12B3
:100F74001D0B7FD3121D0BE4FF121D0B7FD5121D19
:100F84000B7F80121D0B7FD9121D0B7FF1121D0BDD
:100F94007FDA121D0B7F12121D0B7FDB121D0B7FDC
:100FA40040121D0B7F20121D0B7F02121D0B7F8D23
:100FB400121D0B7F14121D0B7FA4121D0B7FA61292
:0D0FC4001D0B7FAF121D0BE4FDFF021B8B08
:0215B4008B0D9D
:1015B600121B8BE4FAEAC3940874809480504AE4C0
:1015C600F50FEA250DFFE433FE74532FF5827407F9
:1015D6003EF583E493FF550E6003430F80E50EC38B
:1015E60013F50E5F6003430F20E50EC313F50E5F80
:1015F6006003430F08E50EC313F50E5F6003430F48
:0916060002AF0F121D1B0A80AC9B
:01160F0022B8
:1012D000E4F9F50AF50974212509F8E624E0F50892
:1012E000AF01C454F0FB750E08AD0A1215B4AF017E
:1012F000E50A04FDE508C454F0FB750E801215B430
:10130000AF01E50A2402FDE508C454F02408FB758A
:101310000E081215B4AF01E50A2403FDE508C45414
:10132000F02408FB750E801215B4740829F905091C
:10133000AF097E00EF64107004F9750A04C3EF94DE
:0813400020EE64809480408ED1
:011348002282
:101C1200E4FFEFC3942074809480500974212FF85C
:051C220076200F80EDAB
:011C2700229A
:061253008B0C8A0D890ED0
:10125900C200EF641470127F04121C3D40077F081E
:10126900121C285006D2008002D200300058752284
:1012790032752330AB0CAA0DA90E90000612066533
:10128900FFAEF07C007D641205DA7E007F0ACFCDC7
:10129900CFCECCCE1205DA1219CD8F24AB0CAA0D04
:1012A900A90E900006120665FFAEF07C007D64125F
:1012B90005DA7E007F0ACFCDCFCECCCE1205DAAFCC
:0612C900051219CD8F256E
:0112CF0022FC
:061716008B0C8A0D890E08
:10171C00C20075262DEF641570127F04121C3D401B
:10172C00077F08121C285006D2008002D20030001D
:10173C002DAB0CAA0DA90E90000512051275F00A1E
:10174C0084FF1219CD8F27AB0CAA0DA90E900005A2
:0E175C0012051275F00A84AFF01219CD8F2815
:01176A00225C
:06176B008B0C8A0D890EB3
:10177100C20075292DEF641670127F04121C3D40C2
:10178100077F08121C285006D2008002D2003000C8
:101791002DAB0CAA0DA90E90000312051275F00ACB
:1017A10084FF1219CD8F2AAB0CAA0DA90E9000034C
:0E17B10012051275F00A84AFF01219CD8F2BBD
:0117BF002207
:10002E00900004120512FF75F003A4243BF582E440
:10003E003407F583E493F52DEF75F003A4243CF516
:10004E0082E43407F583E493F52E90000412051232
:10005E0075F003A4243DF582E43407F583E493F5AB
:02006E002F223F
:0618A8008B0C8A0D890E75
:1018AE00C200EF641270127F04121C3D40077F08C5
:1018BE00121C285006D2008002D20030002DAB0C34
:1018CE00AA0DA90E90000212051275F00A84FF12DD
:1018DE0019CD8F35AB0CAA0DA90E90000212051270
:0B18EE0075F00A84AFF01219CD8F36A0
:0118F90022CC
:061800008B0C8A0D890E1D
:10180600C20075373AEF641370127F04121C3D4014
:10181600077F08121C285006D2008002D200300032
:101826002DAB0CAA0DA90E90000112051275F00A37
:1018360084FF1219CD8F38AB0CAA0DA90E900001AA
:0E18460012051275F00A84AFF01219CD8F3919
:011854002271
:100076008B0C8A0D890E753A3A1204F975F00A84CA
:10008600FF1219CD8F3BAB0CAA0DA90E1204F97500
:0B009600F00A84AFF01219CD8F3C225D
:10161000121E4E8F08121E2D8B098A0A890B121C6E
:1016200012AB09AA0AA90BAF08121253AB09AA0AF6
:10163000A90BAF08121716AB09AA0AA90BAF08121B
:10164000176BAB09AA0AA90B12002EAB09AA0AA9AB
:101650000BAF081218A8AB09AA0AA90BAF081218F9
:0A16600000AB09AA0AA90B020076EC
:10134900C3EE64809480501575252DEFF4F50FEEEA
:10135900F4F50E050FE50F7008050E80048E0E8F4B
:101369000FAE0EAF0F7C007D641205DA8F0DAE0E45
:10137900AF0F7C007D641205DA8D0CE50D75F00A5E
:1013890084FF1219CD8F26E50D75F00A84AFF0128E
:1013990019CD8F2775282EE50C75F00A84FF1219CF
:1013A900CD8F29E50C75F00A84AFF01219CD8F2A7B
:0313B900752B434E
:0113BC00220E
:04185500AB07AA062D
:101859007C007D641205DA8F0DAE02AF037C007D3A
:10186900641205DA8D0CE50D75F00A84FF1219CDA5
:101879008F36E50D75F00A84AFF01219CD8F3775E3
:10188900382EE50C75F00A84FF1219CD8F39E50C55
:0E18990075F00A84AFF01219CD8F3A753B2519
:0118A700221E
:101B4E00121E448E088F09121E498E0A8F0B121C0C
:0F1B5E0012AF09AE08121349AF0BAE0A021855A9
:0D1DC600001F1C1F1E1F1E1F1F1E1F1E1FA3
:0D1DAC007B007A0079411204F94F02059482
:101C3D007B007A0079411204F95F7004C2018002C1
:041C4D00D201A2011D
:011C51002270
:0D1DB9007B007A0079411204F96F02059455
:101D2B007B007A0079411204F9FEEFF45E02059410
:06155700AD47AF49AE48AC
:06155D008E0E8F0F8D10B1
:1015630078127C007D007BFF7A1D79C67E007F0D9B
:101573001204D3E5106402702DE50F5403700EAE10
:101583000EAF0FFC7D641205DAED4C700FAE0EAF9B
:101593000F7C017D901205DAED4C700575111D80ED
:1015A3000D75111C800874122510F8E6F511AF11A2
:0115B3002215
:071E2D007B007A00794222DC
:101A3C007B007A007942900006740775F0E6120676
:101A4C00EA90000574011205A690000374011205BA
:101A5C00A690000274081205A6900001E41205A6D7
:071A6C00E41205940210E7EB
:101000007B007A0079428B088A09890A74011205EB
:101010003FAB08AA09A90A1204F9C3943C7480944E
:10102000805002C322AB08AA09A90AE4120594ABB6
:1010300008AA09A90A900001041205619000011292
:101040000512C3943C748094805002C322AB08AA5A
:1010500009A90A900001E41205A690000274011289
:101060000561900002120512C39418748094805098
:1010700002C322AB08AA09A90A900002E41205A63D
:101080009000037401120561900006120665FFAE20
:10109000F0900005120512FD12155DAB08AA09A912
:1010A0000A900003120512D39F4037900003740189
:1010B0001205A69000057401120561900005120545
:1010C00012C3940D748094804018AB08AA09A90A31
:1010D00090000574011205A6900006E475F0011257
:0610E000069D1210E7D38B
:0110E60022E7
:1010E700E4F50EF50FF512FB7A007942F5148A152F
:1010F7008916900005120512FFC39403748094802B
:10110700AB14AA15A9165018EF240CF51290000677
:10111700120665AEF024FFF50FEE34FFF50E8013CF
:10112700900005120512F512900006120665F50FDC
:1011370085F00EAE0EAF0F7C007D6412062F8E1069
:101147008F11AE0EAF0F7C007D6412062FAB05AA80
:10115700047C007D04AF03AE0212062FEB2FFBAE1B
:1011670010AF117C007D0412062FEB2FF513AF1281
:10117700EF3395E0FEEF2401FFE43EFE7C007D1A8D
:101187001205C87D0A12062FE51125E0FEC3E513F7
:101197009E2FFFAB14AA15A9169000031205122F54
:1011A70014F513FF3395E0FEEF248CFFE43EFE7C3D
:1011B700007D0712062F8D13900004E5130205A684
:101C7C00E4F5420543C3E543943C748094804003EF
:041C8C00E4F5432216
:0E1D7700E4F5421543E543F4700375433B2247
:101CC9000544C3E5449418748094804003E4F544C2
:011CD90022E8
:0B1DF6001544E544F470037544172207
:0F1D68001215570545E545D39F400375450122E8
:0C1DD3001545E54570051215578F452297
:101BC6000547C3E547940D7480948040037547012B
:0B1BD600121557E545C39F40028F45E4
:011BE10022E1
:101C52001547E547700375470C121557E545C39FB5
:041C620040028F4568
:011C6600225B
:101B2B000549E54970020548D39433E548940840CC
:101B3B00067548077549D0121557E545C39F4002F6
:021B4B008F45C4
:011B4D002275
:10000300E54915497002154814FFAE48BE0709BFFC
:10001300CF06754808754933121557E545C39F4008
:03002300028F4504
:0100260022B7
:031E11000150007D
:0B1C6700D2887FFA121C72D2897FFA2B
:0A1C7200AE071FEE60030080F722AA
:101CDA00121C67C2887FFA121C72C2897FFA021C20
:011CEA007287
:0C1DDF00C288121C69D2887FFA021C72B4
:02143000AD0706
:10143200C201E4FCECC3940874809480501BC289FE
:10144200A804ED088002C333D8FC30E704D28880B8
:1014520002C288121C690C80DB7FFA121C72C289DC
:10146200D2887FFA121C72121C6953B1FE7DC8ED3C
:1014720060137FFA121C72AF88EF54017004D2011C
:1014820080031D80EA43B101ED7002C201C2897F6F
:06149200FA121C72A20117
:011498002231
:101B0200E4FD53B1FEFCECC394087480948050133E
:101B1200121C6EED25E0FDAF88EF30E0010DC289A9
:081B22000C80E343B101AF05A3
:011B2A002298
:101BE200C2887FFA121C72C289121C69C2897FFAEA
:0A1BF200121C72D2887FFA021C72E6
:061E3400121C67C28922A6
:020E34008F0825
:100E3600121CDA7F80121430400122AF08121430DF
:100E46004001227F647E00120FD1121CDA7F8112CC
:100E56001430400122121B028F09121BE2121B02E0
:100E66008F0A121BE2121B028F0B121E34121DDF99
:100E7600E509F50CE50AF50DE50864E3AC0CAD0DE6
:100E8600604DE4120349E4FBFA79FA784212019EB6
:100E96008F118E108D0F8C0EE4FBFA798078471235
:100EA60002A7E4FBFA79C078C01200AD8F118E104C
:100EB6008D0F8C0EE4FFFE7DC87C42AB11AA10A9F3
:100EC6000FA80E12019E1203828E538F54804DE49A
:100ED6001203497B527AB8792F784312019E8F11FB
:100EE6008E108D0F8C0EE4FBFA798078471202A7DC
:100EF6007B667A66793B78C21200AD8F118E108DB3
:100F06000F8C0EE4FFFE7DC87C42AB11AA10A90F20
:0D0F1600A80E12019E1203828E518F52D33D
:010F230022AB
:101AA5000550D3E5509409748094804021E4F550A5
:101AB500121E51EF70187FE3120E34920030000EA3
:0E1AC5007F017E00120FD17FE5120E349200D9
:011AD30022F0
:051E4400AE51AF522277
:051E4900AE53AF54226E
:1000A6000203EEE86480F8E933E83360110460F097
:1000B600ED33EC337009E8FCE9FDEAFEEBFF2204C0
:1000C60060DED3EB9FEA9EE99DE8C2E78CF0C2F7BB
:1000D60095F0400CE8CCF8E9CDF9EACEFAEBCFFB87
:1000E6001203B985D0F05804700320D5B3E8047024
:1000F600075002B2D50203F892D5EC0460F7E4CCBF
:10010600C0E0C398F8603B94186008400DD0E0FB4F
:100116000203D0E4FBFAC9FC8028E830E406E4C90F
:10012600FBE4CAFCE830E305E4C9CACBFCE85407A3
:100136006010F8C3E913F9EA13FAEB13FBEC13FCAE
:10014600D8F130F52FC3E49CFCEF9BFFEE9AFEED51
:1001560099FDD0E0FBEF4E4D4C701222DB030203FB
:10016600F5EC2CFCEF33FFEE33FEED33FDED30E71F
:10017600EB0203D0EF2BFFEE3AFEED39FDD0E0FBAC
:1001860050130BBB00030203F8ED13FDEE13FEEF55
:0801960013FFEC13FC0203D07F
:10019E00EC4D6011E8497017ED33EC3304600DE45B
:1001AE00FCFFFEFD22E933E8330470F80203EE1281
:1001BE0003B958046009E4CC248150062850090282
:1001CE0003F82840030203F5C0E0EB4A7044B980FF
:1001DE0006D0E0FB0203E4EF4E701CBD8008EBFF7F
:1001EE00EAFEE9FD80EBE98DF0A4FEE5F002028760
:1001FE00E9CDF9EAFEEBFFEF89F0A4FCE5F0CE893C
:10020E00F0A42EFFE435F0CD89F0A42DFEE435F0F8
:10021E008067EF4E7005BD80D780C3EF8BF0A4AC26
:10022E00F0EE8BF0A42CFCE435F0F8EF8AF0A42C61
:10023E00E5F038FCE433CB8DF0A42CFCE5F03BF874
:10024E00EE8AF0A42CFCE5F038F8E433CF89F0A464
:10025E002CFCE5F038CF3400CE89F0A42FFFE5F06A
:10026E003EFEE433C98DF0A42EFEE5F039CD8AF0C2
:10027E00A42FFFE5F03EFEE43DFD33D0E0FB50073A
:10028E000BBB000F0203F8EC2CFCEF33FFEE33FE3A
:06029E00ED33FD0203D068
:1002A4000203F8EC5D046005E8590470030203EEF0
:1002B4001203B9580460F6EC4860F2EC7004FDFED9
:1002C400FF22C860DB2481C85009C398600250062D
:1002D4000203F59850CAF582E9294B4A7005AB82AE
:1002E4000203E475F0007C1A7880C3EF9BEE9AED6C
:1002F40099400DC3EF9BFFEE9AFEED99FDE842F0A5
:10030400DC23ACF0D0E0FFD0E0FED0E0FDAB8220F7
:10031400E7101BEB60BAEC2CFCEF33FFEE33FEED81
:1003240033FD0203D0E803F830E705C0F075F000B0
:10033400EF2FFFEE33FEED33FD40B830E7C280AA65
:1003440075F020800E75F010800575F0087D007E34
:10035400007F003392D530D503120717EC334010D9
:10036400EF33FFEE33FEED33FDEC33FCD5F0ED223D
:0E037400E5F0247EA2D513CC92E7CDCEFF2279
:10038200EDD2E7CD33EC3392D524814006E4FFFE73
:10039200FDFC22FCE4CFCECDCC24E0501174FF80D2
:1003A200EDC3CC13CCCD13CDCE13CECF13CF04706F
:0703B200F030D5DE02071751
:1003B900E9D2E7C933E833F892D5EDD2E7CD33EC8A
:0703C90033FC5002B2D52203
:1003D000EC30E7100FBF000C0EBE00080DBD00048E
:1003E0000BEB6014A2D5EB13FCED92E7FD2274FF3A
:1003F000FCFDFEFF22E480F8A2D574FF13FC7D8093
:03040000E480EFA6
:030000000211C723
:0C11C700787FE4F6D8FD75815802120E06
:10040300E709F608DFFA8046E709F208DFFA803EDB
:1004130088828C83E709F0A3DFFA8032E309F608C8
:10042300DFFA8078E309F208DFFA807088828C8330
:10043300E309F0A3DFFA806489828A83E0A3F608E4
:10044300DFFA805889828A83E0A3F208DFFA804CBE
:1004530080D280FA80C680D4806980F28033801095
:1004630080A680EA809A80A880DA80E280CA8033FE
:1004730089828A83ECFAE493A3C8C582C8CCC58376
:10048300CCF0A3C8C582C8CCC583CCDFE9DEE78046
:100493000D89828A83E493A3F608DFF9ECFAA9F0C5
:1004A300EDFB2289828A83ECFAE0A3C8C582C8CC1B
:1004B300C583CCF0A3C8C582C8CCC583CCDFEADE34
:1004C300E880DB89828A83E493A3F208DFF980CC96
:1004D30088F0EF60010E4E60C388F0ED2402B4048F
:1004E3000050B9F582EB2402B4040050AF23234536
:0604F30082239004537304
:1004F900BB010689828A83E0225002E722BBFE0201
:09050900E32289828A83E4932233
:10051200BB010CE58229F582E5833AF583E022509E
:1005220006E92582F8E622BBFE06E92582F8E222E8
:0D053200E58229F582E5833AF583E4932202
:10053F00BB010989828A83F8E028F022500327F74C
:10054F0022BBFE05F8E328F3228A838982F8E4931D
:02055F00282250
:10056100BB010FF8E58229F582E5833AF583E0289E
:10057100F0225009C58229F8E58226F622BBFE0940
:10058100C58229F8E22582F222F8EA2583F583E97A
:030591009328228A
:10059400BB010689828A83F0225002F722BBFE0146
:0205A400F32240
:1005A600F8BB010DE58229F582E5833AF583E8F08B
:1005B600225006E92582C8F622BBFE05E92582C837
:0205C600F2221F
:1005C800EF8DF0A4A8F0CF8CF0A428CE8DF0A42E47
:0205D800FE2201
:1005DA00BC000BBE0029EF8DF084FFADF022E4CC05
:1005EA00F875F008EF2FFFEE33FEEC33FCEE9DECCE
:1005FA00984005FCEE9DFE0FD5F0E9E4CEFD22ED14
:10060A00F8F5F0EE8420D21CFEADF075F008EF2F5D
:10061A00FFED33FD4007985006D5F0F222C398FD4E
:05062A000FD5F0EA22EB
:10062F00C2D5EC30E709B2D5E4C39DFDE49CFCEEE6
:10063F0030E715B2D5E4C39FFFE49EFE1205DAC37F
:10064F00E49DFDE49CFC80031205DA30D507C3E47A
:06065F009FFFE49EFE2255
:10066500BB0110E58229F582E5833AF583E0F5F0D3
:10067500A3E0225009E92582F886F008E622BBFEB0
:100685000AE92582F8E2F5F008E222E5832AF583F6
:08069500E993F5F0A3E99322BB
:10069D00BB010DC58229C582C5833AC583020725D5
:1006AD005011C58229F808E5F026F618F5F0E58217
:1006BD0036F622BBFE11C58229F808E225F0F5F0C9
:1006CD00F218E23582F222F8E58229F582E5832AD5
:0D06DD00F58374019325F0F5F0E4933822C5
:1006EA00F8BB0111E58229F582E5833AF583E8F042
:1006FA00E5F0A3F0225009E92582C8F608A6F022FF
:0D070A00BBFE09E92582C8F2E5F008F222E5
:0E071700C3E49FFFE49EFEE49DFDE49CFC22F3
:1011D300021BA9E493A3F8E493A34003F68001F26E
:1011E30008DFF48029E493A3F85407240CC8C3331D
:1011F300C4540F4420C8834004F456800146F6DFEC
:10120300E4800B0102040810204080901E0BE47E52
:10121300019360BCA3FF543F30E509541FFEE493E0
:10122300A360010ECF54C025E060A840B8E493A3A7
:10123300FAE493A3F8E493A3C8C582C8CAC583CAD2
:10124300F0A3C8C582C8CAC583CADFE9DEE780BE8A
:011E140000CD
:10072500C5F0F8A3E028F0C5F0F8E582158270025F
:060735001583E038F022FC
:00000001FF
