:051EA6008E568F57224B
:0F1DAE00E55745566008E5571557700215562240
:091E8800121DBD121D03021DAE66
:0A1E7400E55745567003121EAB221D
:101BE0007FE87E03121B187FE87E03121E5E121A26
:0E1BF000B3121A7C1211C77FB07E04021EA62B
:1016A3007F01121CB040077F01121C9B50367F0143
:1016B300121CB0500E7F01121D9E120027121E88AD
:1016C300121E747F01121C9B50177F01121D5E12A4
:1016D3000E9B7F02121C9B50051213F68003121AF5
:1016E30045121C6F7F02121CB0500B7F02121D9E0D
:0716F300121000121AB322CD
:031E7E00011F0041
:101D0300051FD3E51F9404748094804005E4F51FF8
:021D1300B2021A
:011D150022AB
:101C6F00121EBDEF6002C202200205121649800348
:061C7F00121BC102137DDF
:101A0D00EFFD7C00C374809480400FD3ED94097476
:101A1D00809480500574302FFF22C3ED940AEC643E
:101A2D008094804010D3ED940FEC64809480500529
:081A3D0074372FFF227FFF2206
:0B1E5E00EF1FAC0670011E4C70F62256
:101B1800D3EF9400EE940040257D14EDD394007427
:101B280080948040127CC7ECD394007480948040E9
:0E1B3800031C80F31D80E4EF1F70D51E80D2C9
:011B4600227C
:03002700054E2261
:0D1DF8007B007A00794A1204F94F0205942D
:101C9B007B007A00794A1204F95F7004C20180025A
:041CAB00D201A201BF
:011CAF002212
:101D5E007B007A00794A1204F9FEEFF45E020594D4
:030070008F4D228F
:031EBA00AF4D2207
:031EBD00AF4F2202
:0F1DBD00E54F600A154FE54F7004FF12007022CA
:100E9B007B007A00794A8B098A0A890B900001E45E
:100EAB001205A6E5805438F50864387010AB09AA12
:100EBB000AA90B1204F954FD12059480157F027ECA
:100ECB0000121B18E5805438FF64386005E5086F85
:100EDB006008AB09AA0AA90B805253A8DFE580541E
:100EEB0038F50824E8602224F0601124F87028AB50
:100EFB0009AA0AA90B90000174028018AB09AA0A6F
:100F0B00A90B9000017401800BAB09AA0AA90B90E5
:100F1B00000174031205A6AB09AA0AA90B900001E4
:100F2B00120512FF70299000011205A61204F95444
:100F3B00FB120594AB09AA0AA90B1204F954F71278
:100F4B000594AB09AA0AA90B1204F954EF8028AB3C
:100F5B0009AA0AA90B1204F9FEC3135401701B90C2
:100F6B000002EF1205A6EE4404120594AB09AA0A7F
:100F7B00A90B1204F94402120594E4F5C043A8200E
:010F8B002243
:101AE6007B007A00794A1204F9FF1313540164014A
:101AF6007004F54ED322EF13131354017010E54E04
:101B06006402700C1204F94408120594D322D322FD
:011B1600C30B
:011B170022AB
:1014D2008B0B8A0C890DE54D6054121AE6504FAB06
:1014E2000BAA0CA90D1204F9FF1313540164017025
:1014F2000BE54D24EF70057F08121E2CE54D24EDFF
:101502006012146014146016146018240470171208
:101512001D3C8012121CEF800D121B9E8008121CB3
:0F152200398003121DDB7F04121E1F1210E722F7
:101531008B0B8A0C890DE54D6054121AE6504FABA6
:101541000BAA0CA90D1204F9FF13135401640170C5
:101551000BE54D24EF70057F08121E2CE54D24ED9F
:1015610060121460141460161460182404701712A9
:101571001E698012121DEA800D1200038008121CE0
:0F158100C58003121E467F04121E1F1210E722A0
:1013F6007B007A00794A8B088A09890A90000112D3
:101406000512FF7E00C39404748094804003EF604D
:1014160051AB08AA09A90A1204F9FF1313543F2075
:10142600E009EF131313541F30E007E54D60037511
:101436004F1490000112051224FE600804700E126B
:1014460014D28009AB08AA09A90A121531AB08AA59
:1014560009A90A1204F954FB1205947FB07E0412FE
:021466001EA6C0
:011468002261
:101B4700E54D6020541064106004E4F54D22754F94
:101B570014054DD3E54D941674809480400FE4F539
:0E1B67004DF54F22754D12754F14121D1622AA
:101A45007B007A00794A900002120512FF9000028D
:101A5500E41205A6AC02AD01C3ED9404EC9400407C
:101A650004ED4C6011EF24FD60028003121B477FDB
:061A7500B07E04121EA663
:011A7B002248
:101C1C0053A87F1218FA1217F9121E91121E1212E3
:0D1C2C001E0543A880121BE01216A380FBCA
:031E810001580005
:0D1E0500E4F5A575A4FC75A75543A820229F
:081E9100E4F59AF599F59B2296
:101D1600E4F5BB75BA4075BD7A75BC1143AA044398
:031D2600BB80225D
:0D1E120075968875890175898143AB04229E
:0717F90075C829E4F58A22FE
:1018FA0075A1C775AC38E4F591F5DEF58075B1FFD1
:10190A00F5ADF592F5DFF58875B9FFF5AEF593F506
:10191A009075C1FFF5AFF59875C9FFF5A3F594F574
:10192A00A075D1DF759520F5B0F5D3F5D2F5D5F5CB
:0D193A00D4F5D7F5D6F5EEF5EF75FF2822B0
:03002B0002199027
:10199000C0E0C0F0C083C082C0D075D000C000C01D
:1019A00001C002C003C004C005C006C0077F011209
:1019B0001DF875C000D007D006D005D004D003D0E4
:1019C00002D001D000D0D0D082D083D0F0D0E0328D
:030073000219D09F
:1019D000C0E0C0F0C083C082C0D075D000C000C0DD
:1019E00001C002C003C004C005C006C0077F0112C9
:1019F0001DF8D007D006D005D004D003D002D00106
:0D1A0000D000D0D0D082D083D0F0D0E03222
:0300A300021947F8
:10194700C0E0C0F0C083C082C0D075D000C000C066
:0D19570001C002C003C004C005C006C007E7
:1019640005587F05121E1FE55830E0057F02121E40
:011974001F53
:10197500D007D006D005D004D003D002D001D000C6
:0B198500D0D0D082D083D0F0D0E03270
:10075A0053756E4D6F6E547565576564546875466A
:10076A00726953746100000000000000000000007C
:10077A000000000000000000000000F80000000077
:10078A00000000333000000000100C06100C0600B8
:10079A00000000000000000040C07840C07840001F
:1007AA00043F04043F040400007088FC0830000081
:1007BA00001820FF211E0000F008F000E0180000D9
:1007CA0000211C031E211E0000F008887000000092
:1007DA001E2123241927211010160E0000000000E4
:1007EA000000000000000000000000E01804020001
:1007FA00000000071820400000020418E000000072
:10080A000040201807000000404080F0804040006F
:10081A000202010F01020200000000F000000000C5
:10082A000101011F01010100000000000000000099
:10083A0080B070000000000000000000000000000E
:10084A000001010101010101000000000000000097
:10085A000030300000000000000000008060180432
:10086A00006018060100000000E010080810E0000F
:10087A00000F102020100F00001010F800000000D8
:10088A000020203F2020000000700808088870001F
:10089A00003028242221300000300888884830009F
:1008AA000018202020110E000000C02010F80000BF
:1008BA0000070424243F240000F808888808080058
:1008CA000019212020110E0000E01088881800006D
:1008DA00000F112020110E0000380808C83808003F
:1008EA000000003F000000000070880808887000BF
:1008FA00001C222121221C0000E010080810E00040
:10090A000000312222110F00000000C0C0000000C8
:10091A0000000030300000000000008000000000ED
:10092A0000008060000000000000804020100800E5
:10093A0000010204081020004040404040404000AE
:10094A000404040404040400000810204080000089
:10095A000020100804020100007048080808F0008E
:10096A000000003036010000C030C828E810E0005E
:10097A000718272423140B000000C038E0000000E9
:10098A00203C23020227382008F888888870000053
:10099A00203F202020110E00C03008080808380027
:1009AA00071820202010080008F808080810E0009E
:1009BA00203F202020100F0008F88888E80810003F
:1009CA00203F20202320180008F88888E808100013
:1009DA00203F200003000000C0300808083800004B
:1009EA0007182020221E020008F808000008F8084C
:1009FA00203F210101213F20000808F808080000D3
:100A0A000020203F2020000000000808F808080005
:100A1A00C08080807F00000008F888C0281808007D
:100A2A00203F20012638200008F8080000000000B6
:100A3A00203F20202020300008F8F800F8F80800AD
:100A4A00203F003F003F200008F830C00008F808A7
:100A5A00203F200007183F00E01008080810E000B7
:100A6A000F10202020100F0008F808080808F000CE
:100A7A00203F210101010000E01008080810E000F1
:100A8A000F18242438504F0008F888888888700086
:100A9A00203F2000030C3020007088080808380026
:100AAA000038202121221C00180808F8080818001C
:100ABA000000203F2000000008F808000008F8089D
:100ACA00001F202020201F000878880000C838084E
:100ADA00000007380E010000F80800F80008F800C6
:100AEA00033C0700073C0300081868808068180860
:100AFA0020302C03032C30200838C800C8380800DE
:100B0A000000203F2000000010080808C83808002C
:100B1A002038262120201800000000FE02020200D0
:100B2A000000007F40404000000C30C00000000080
:100B3A00000000010638C00000020202FE000000A8
:100B4A00004040407F00000000000402020204004E
:100B5A00000000000000000000000000000000008B
:100B6A008080808080808080000202040000000073
:100B7A00000000000000000000008080808000006B
:100B8A000019242222223F2008F800808000000059
:100B9A00003F112020110E0000000080808000001C
:100BAA00000E112020201100000000808088F8002B
:100BBA00000E112020103F2000008080808000005D
:100BCA00001F222222221300008080F088888818C1
:100BDA000020203F202000000000808080808000CC
:100BEA00006B94949493600008F800808080000061
:100BFA00203F210000203F2000809898000000003C
:100C0A000020203F2020000000000080989800006B
:100C1A0000C08080807F000008F80000808080008B
:100C2A00203F24022D302000000808F800000000B0
:100C3A000020203F2020000080808080808080006B
:100C4A00203F20003F20003F8080008080800000FD
:100C5A00203F210000203F2000008080808000008B
:100C6A00001F202020201F008080008080000000BC
:100C7A0080FFA12020110E000000008080808000EB
:100C8A00000E112020A0FF808080800080808000DC
:100C9A0020203F2120000100000080808080800009
:100CAA000033242424241900008080E0808000007E
:100CBA000000001F202000008080000000808000CB
:100CCA00001F202020103F2080808000008080802C
:100CDA0000010E30080601008080008000808080BC
:100CEA000F300C030C300F000080800080808000E1
:100CFA000020312E0E31200080808000008080800C
:100D0A0080818E70180601000080808080808000BB
:100D1A000021302C2221300000000000807C0202D9
:100D2A0000000000003F404000000000FF000000FB
:100D3A0000000000FF0000000002027C80000000AA
:100D4A000040403F000000000006010102020404C6
:080D5A00000000000000000091
:091D6E007FFA121D77D2867FFA7C
:071D7700AE071FEE70FA2217
:101D2900D287121D6EC2877FFA121D77C2867FFA8B
:031D3900021D7711
:0F1DCC00C287121D73D2877FFA121D77D286222B
:0716FA00AB07121D297F78E8
:02170100AD0732
:10170300C200E4FCECC39408748094805019C28630
:10171300ED548064807004D2878002C287121D6EEC
:10172300ED25E0FD0C80DDC28653A17F121D6EAF57
:1017330080EF548064807002D2007FFA121D77C25A
:0B1743008643A1807FFA121D77A200F0
:01174E002278
:101D7E001216FAE4FF121701AF03121701021DCC5F
:101D8E001216FA7F40121701AF03121701021DCC73
:101BFE00AA07ED44B0FF121D7EEA54F0C4540F4400
:0E1C0E0010FF121D7EEA540F4401FF021D7EDE
:051EAB007FAE021D7E68
:1011C700D28B7F0A7E00121B18C28B7F0A7E001209
:1011D7001B18D28B7F0A7E00121B187FAE121D7E52
:1011E700E4FF121D7E7F10121D7E7F40121D7E7F41
:1011F70081121D7E7FFA121D7E7FA1121D7E7FC880
:10120700121D7E7FA6121D7E7FA8121D7E7F3F12B4
:101217001D7E7FD3121D7EE4FF121D7E7FD5121D1A
:101227007E7F80121D7E7FD9121D7E7FF1121D7E6B
:101237007FDA121D7E7F12121D7E7FDB121D7E7FDD
:1012470040121D7E7F20121D7E7F02121D7E7F8D24
:10125700121D7E7F14121D7E7FA4121D7E7FA61293
:0D1267001D7E7FAF121D7EE4FDFF021BFE09
:0215ED008B0D64
:1015EF00121BFEE4FAEAC3940874809480504AE414
:1015FF00F50FEA250DFFE433FE74722FF5827407A1
:10160F003EF583E493FF550E6003430F80E50EC351
:10161F0013F50E5F6003430F20E50EC313F50E5F46
:10162F006003430F08E50EC313F50E5F6003430F0E
:09163F0002AF0F121D8E0A80ACEF
:01164800227F
:10137D00E4F9F50AF50974212509F8E624E0F508E4
:10138D00AF01C454F0FB750E08AD0A1215EDAF0197
:10139D00E50A04FDE508C454F0FB750E801215ED49
:1013AD00AF01E50A2402FDE508C454F02408FB75DD
:1013BD000E081215EDAF01E50A2403FDE508C4542E
:1013CD00F02408FB750E801215ED740829F9050936
:1013DD00AF097E00EF64107004F9750A04C3EF9431
:0813ED0020EE64809480408E24
:0113F50022D5
:101C8500E4FFEFC3942074809480500974212FF8E9
:051C950076200F80ED38
:011C9A002227
:061300008B0C8A0D890E22
:10130600C200EF641470127F04121CB040077F08FD
:10131600121C9B5006D2008002D200300058752263
:1013260032752330AB0CAA0DA90E90000612066585
:10133600FFAEF07C007D641205DA7E007F0ACFCD19
:10134600CFCECCCE1205DA121A0D8F24AB0CAA0D15
:10135600A90E900006120665FFAEF07C007D6412B1
:1013660005DA7E007F0ACFCDCFCECCCE1205DAAF1E
:0613760005121A0D8F257F
:01137C00224E
:06174F008B0C8A0D890ECF
:10175500C20075262DEF641570127F04121CB0406F
:10176500077F08121C9B5006D2008002D200300071
:101775002DAB0CAA0DA90E90000512051275F00AE5
:1017850084FF121A0D8F27AB0CAA0DA90E90000528
:0E17950012051275F00A84AFF0121A0D8F289B
:0117A3002223
:0617A4008B0C8A0D890E7A
:1017AA00C20075292DEF641670127F04121CB04016
:1017BA00077F08121C9B5006D2008002D20030001C
:1017CA002DAB0CAA0DA90E90000312051275F00A92
:1017DA0084FF121A0D8F2AAB0CAA0DA90E900003D2
:0E17EA0012051275F00A84AFF0121A0D8F2B43
:0117F80022CE
:10002E00900004120512FF75F003A4245AF582E421
:10003E003407F583E493F52DEF75F003A4245BF5F7
:10004E0082E43407F583E493F52E90000412051232
:10005E0075F003A4245CF582E43407F583E493F58C
:02006E002F223F
:0618A8008B0C8A0D890E75
:1018AE00C200EF641270127F04121CB040077F0852
:1018BE00121C9B5006D2008002D20030002DAB0CC1
:1018CE00AA0DA90E90000212051275F00A84FF12DD
:1018DE001A0D8F35AB0CAA0DA90E9000021205122F
:0B18EE0075F00A84AFF0121A0D8F365F
:0118F90022CC
:061800008B0C8A0D890E1D
:10180600C20075373AEF641370127F04121CB040A1
:10181600077F08121C9B5006D2008002D2003000BF
:101826002DAB0CAA0DA90E90000112051275F00A37
:1018360084FF121A0D8F38AB0CAA0DA90E90000169
:0E18460012051275F00A84AFF0121A0D8F39D8
:011854002271
:100076008B0C8A0D890E753A3A1204F975F00A84CA
:10008600FF121A0D8F3BAB0CAA0DA90E1204F975BF
:0B009600F00A84AFF0121A0D8F3C221C
:10164900121EBA8F08121E998B098A0A890B121C5D
:1016590085AB09AA0AA90BAF08121300AB09AA0A9C
:10166900A90BAF0812174FAB09AA0AA90BAF0812A9
:1016790017A4AB09AA0AA90B12002EAB09AA0AA939
:101689000BAF081218A8AB09AA0AA90BAF081218C0
:0A16990000AB09AA0AA90B020076B3
:100F8C00C3EE64809480501575252DEFF4F50FEEAB
:100F9C00F4F50E050FE50F7008050E80048E0E8F0C
:100FAC000FAE0EAF0F7C007D641205DA8F0DAE0E06
:100FBC00AF0F7C007D641205DA8D0CE50D75F00A1F
:100FCC0084FF121A0D8F26E50D75F00A84AFF0120E
:100FDC001A0D8F2775282EE50C75F00A84FF121A4E
:100FEC000D8F29E50C75F00A84AFF0121A0D8F2ABB
:030FFC00752B430F
:010FFF0022CF
:04185500AB07AA062D
:101859007C007D641205DA8F0DAE02AF037C007D3A
:10186900641205DA8D0CE50D75F00A84FF121A0D64
:101879008F36E50D75F00A84AFF0121A0D8F3775A2
:10188900382EE50C75F00A84FF121A0D8F39E50C14
:0E18990075F00A84AFF0121A0D8F3A753B25D8
:0118A700221E
:101BC100121EB08E088F09121EB58E0A8F0B121CC1
:0F1BD10085AF09AE08120F8CAF0BAE0A02185584
:0D1E3900001F1C1F1E1F1E1F1F1E1F1E1F2F
:0D1E1F007B007A0079411204F94F0205940E
:101CB0007B007A0079411204F95F7004C20180024E
:041CC000D201A201AA
:011CC40022FD
:0D1E2C007B007A0079411204F96F020594E1
:101D9E007B007A0079411204F9FEEFF45E0205949D
:06159000AD47AF49AE4873
:061596008E0E8F0F8D1078
:10159C0078127C007D007BFF7A1E79397E007F0DEE
:1015AC001204D3E5106402702DE50F5403700EAED7
:1015BC000EAF0FFC7D641205DAED4C700FAE0EAF62
:1015CC000F7C017D901205DAED4C700575111D80B4
:1015DC000D75111C800874122510F8E6F511AF1169
:0115EC0022DC
:071E99007B007A0079422270
:101A7C007B007A007942900006740775F0E6120735
:101A8C000990000574011205A6900003740112055B
:101A9C00A690000274081205A6900001E41205A697
:071AAC00E41205940210E7AB
:101000007B007A0079428B088A09890A74011205EB
:101010003FAB08AA09A90A1204F9C3943C7480944E
:10102000805002C322AB08AA09A90AE4120594ABB6
:1010300008AA09A90A900001041205619000011292
:101040000512C3943C748094805002C322AB08AA5A
:1010500009A90A900001E41205A690000274011289
:101060000561900002120512C39418748094805098
:1010700002C322AB08AA09A90A900002E41205A63D
:101080009000037401120561900006120665FFAE20
:10109000F0900005120512FD121596AB08AA09A9D9
:1010A0000A900003120512D39F4037900003740189
:1010B0001205A69000057401120561900005120545
:1010C00012C3940D748094804018AB08AA09A90A31
:1010D00090000574011205A6900006E475F0011257
:0610E000069D1210E7D38B
:0110E60022E7
:1010E700E4F50EF50FF512FB7A007942F5148A152F
:1010F7008916900005120512FFC39403748094802B
:10110700AB14AA15A9165018EF240CF51290000677
:10111700120665AEF024FFF50FEE34FFF50E8013CF
:10112700900005120512F512900006120665F50FDC
:1011370085F00EAE0EAF0F7C007D6412062F8E1069
:101147008F11AE0EAF0F7C007D6412062FAB05AA80
:10115700047C007D04AF03AE0212062FEB2FFBAE1B
:1011670010AF117C007D0412062FEB2FF513AF1281
:10117700EF3395E0FEEF2401FFE43EFE7C007D1A8D
:101187001205C87D0A12062FE51125E0FEC3E513F7
:101197009E2FFFAB14AA15A9169000031205122F54
:1011A70014F513FF3395E0FEEF248CFFE43EFE7C3D
:1011B700007D0712062F8D13900004E5130205A684
:101CEF00E4F5420543C3E543943C7480948040037C
:041CFF00E4F54322A3
:0E1DEA00E4F5421543E543F4700375433B22D4
:101D3C000544C3E5449418748094804003E4F5444E
:011D4C002274
:0B1E69001544E544F470037544172293
:0F1DDB001215900545E545D39F4003754501223C
:0C1E46001545E54570051215908F4522EA
:101C39000547C3E547940D748094804003754701B7
:0B1C4900121590E545C39F40028F4537
:011C5400226D
:101CC5001547E547700375470C121590E545C39F09
:041CD50040028F45F5
:011CD90022E8
:101B9E000549E54970020548D39433E54894084059
:101BAE00067548077549D0121590E545C39F40024A
:021BBE008F4551
:011BC0002202
:10000300E54915497002154814FFAE48BE0709BFFC
:10001300CF06754808754933121590E545C39F40CF
:03002300028F4504
:0100260022B7
:031E84000150000A
:0B1CDA00D2887FFA121CE5D2897FFA45
:0A1CE500AE071FEE60030080F72237
:101D4D00121CDAC2887FFA121CE5C2897FFA021CC6
:011D5D00E5A0
:0C1E5200C288121CDCD2887FFA021CE55A
:02146900AD07CD
:10146B00C200E4FCECC3940874809480501BC289C6
:10147B00A804ED088002C333D8FC30E704D288807F
:10148B0002C288121CDC0C80DB7FFA121CE5C289BD
:10149B00D2887FFA121CE5121CDC53B1FE7DC8ED1D
:1014AB0060137FFA121CE5AF88EF54017004D20071
:1014BB0080031D80EA43B101ED7002C200C2897F37
:0614CB00FA121CE5A2006C
:0114D10022F8
:101B7500E4FD53B1FEFCECC39408748094805013CB
:101B8500121CE1ED25E0FDAF88EF30E0010DC289C3
:081B95000C80E343B101AF0530
:011B9D002225
:101C5500C2887FFA121CE5C289121CDCC2897FFA90
:0A1C6500121CE5D2887FFA021CE58C
:061EA000121CDAC28922C7
:080D62008F088B098A0A890B36
:100D6A00121D4D7F80121469400DAB09AA0AA90B06
:100D7A0074AA75F0BB8030AF08121469400DAB0934
:100D8A00AA0AA90B741275F034801C7F647E0012C3
:100D9A001B18121D4D7F81121469400EAB09AA0A55
:100DAA00A90B743475F0560206EA121B75AB09AA30
:100DBA000AA90BEF120594121C55121B75AB09AA4E
:100DCA000AA90B900001EF1205A6121C55121B75F9
:100DDA008F0C121EA0121E52AB09AA0AA90B900070
:100DEA0001120512FD1204F9F50DEDF50EE5086480
:100DFA00E3AC0D604CE4120349E4FBFA79FA784259
:100E0A0012019E8F128E118D108C0FE4FBFA7980DD
:100E1A0078471202A7E4FBFA79C078C01200AD8FB6
:100E2A00128E118D108C0FE4FFFE7DC87C42AB122E
:100E3A00AA11A910A80F12019E1203828E538F5471
:100E4A0022AD0EE41203497B527AB8792F78431205
:100E5A00019E8F128E118D108C0FE4FBFA79807827
:100E6A00471202A77B667A66793B78C21200AD8F79
:100E7A00128E118D108C0FE4FFFE7DC87C42AB12DE
:100E8A00AA11A910A80F12019E1203828E518F5225
:010E9A002235
:101AB3000550D3E550940A748094804025E4F55092
:101AC300121EBDEF701CFB7A0079517FE3120D6289
:101AD3007F017E00121B187B007A0079537FE51289
:021AE3000D6292
:011AE50022DE
:051EB000AE51AF52220B
:051EB500AE53AF542202
:1000A6000203EEE86480F8E933E83360110460F097
:1000B600ED33EC337009E8FCE9FDEAFEEBFF2204C0
:1000C60060DED3EB9FEA9EE99DE8C2E78CF0C2F7BB
:1000D60095F0400CE8CCF8E9CDF9EACEFAEBCFFB87
:1000E6001203B985D0F05804700320D5B3E8047024
:1000F600075002B2D50203F892D5EC0460F7E4CCBF
:10010600C0E0C398F8603B94186008400DD0E0FB4F
:100116000203D0E4FBFAC9FC8028E830E406E4C90F
:10012600FBE4CAFCE830E305E4C9CACBFCE85407A3
:100136006010F8C3E913F9EA13FAEB13FBEC13FCAE
:10014600D8F130F52FC3E49CFCEF9BFFEE9AFEED51
:1001560099FDD0E0FBEF4E4D4C701222DB030203FB
:10016600F5EC2CFCEF33FFEE33FEED33FDED30E71F
:10017600EB0203D0EF2BFFEE3AFEED39FDD0E0FBAC
:1001860050130BBB00030203F8ED13FDEE13FEEF55
:0801960013FFEC13FC0203D07F
:10019E00EC4D6011E8497017ED33EC3304600DE45B
:1001AE00FCFFFEFD22E933E8330470F80203EE1281
:1001BE0003B958046009E4CC248150062850090282
:1001CE0003F82840030203F5C0E0EB4A7044B980FF
:1001DE0006D0E0FB0203E4EF4E701CBD8008EBFF7F
:1001EE00EAFEE9FD80EBE98DF0A4FEE5F002028760
:1001FE00E9CDF9EAFEEBFFEF89F0A4FCE5F0CE893C
:10020E00F0A42EFFE435F0CD89F0A42DFEE435F0F8
:10021E008067EF4E7005BD80D780C3EF8BF0A4AC26
:10022E00F0EE8BF0A42CFCE435F0F8EF8AF0A42C61
:10023E00E5F038FCE433CB8DF0A42CFCE5F03BF874
:10024E00EE8AF0A42CFCE5F038F8E433CF89F0A464
:10025E002CFCE5F038CF3400CE89F0A42FFFE5F06A
:10026E003EFEE433C98DF0A42EFEE5F039CD8AF0C2
:10027E00A42FFFE5F03EFEE43DFD33D0E0FB50073A
:10028E000BBB000F0203F8EC2CFCEF33FFEE33FE3A
:06029E00ED33FD0203D068
:1002A4000203F8EC5D046005E8590470030203EEF0
:1002B4001203B9580460F6EC4860F2EC7004FDFED9
:1002C400FF22C860DB2481C85009C398600250062D
:1002D4000203F59850CAF582E9294B4A7005AB82AE
:1002E4000203E475F0007C1A7880C3EF9BEE9AED6C
:1002F40099400DC3EF9BFFEE9AFEED99FDE842F0A5
:10030400DC23ACF0D0E0FFD0E0FED0E0FDAB8220F7
:10031400E7101BEB60BAEC2CFCEF33FFEE33FEED81
:1003240033FD0203D0E803F830E705C0F075F000B0
:10033400EF2FFFEE33FEED33FD40B830E7C280AA65
:1003440075F020800E75F010800575F0087D007E34
:10035400007F003392D530D503120736EC334010BA
:10036400EF33FFEE33FEED33FDEC33FCD5F0ED223D
:0E037400E5F0247EA2D513CC92E7CDCEFF2279
:10038200EDD2E7CD33EC3392D524814006E4FFFE73
:10039200FDFC22FCE4CFCECDCC24E0501174FF80D2
:1003A200EDC3CC13CCCD13CDCE13CECF13CF04706F
:0703B200F030D5DE02073632
:1003B900E9D2E7C933E833F892D5EDD2E7CD33EC8A
:0703C90033FC5002B2D52203
:1003D000EC30E7100FBF000C0EBE00080DBD00048E
:1003E0000BEB6014A2D5EB13FCED92E7FD2274FF3A
:1003F000FCFDFEFF22E480F8A2D574FF13FC7D8093
:03040000E480EFA6
:0300000002127475
:0C127400787FE4F6D8FD7581580212BBAB
:10040300E709F608DFFA8046E709F208DFFA803EDB
:1004130088828C83E709F0A3DFFA8032E309F608C8
:10042300DFFA8078E309F208DFFA807088828C8330
:10043300E309F0A3DFFA806489828A83E0A3F608E4
:10044300DFFA805889828A83E0A3F208DFFA804CBE
:1004530080D280FA80C680D4806980F28033801095
:1004630080A680EA809A80A880DA80E280CA8033FE
:1004730089828A83ECFAE493A3C8C582C8CCC58376
:10048300CCF0A3C8C582C8CCC583CCDFE9DEE78046
:100493000D89828A83E493A3F608DFF9ECFAA9F0C5
:1004A300EDFB2289828A83ECFAE0A3C8C582C8CC1B
:1004B300C583CCF0A3C8C582C8CCC583CCDFEADE34
:1004C300E880DB89828A83E493A3F208DFF980CC96
:1004D30088F0EF60010E4E60C388F0ED2402B4048F
:1004E3000050B9F582EB2402B4040050AF23234536
:0604F30082239004537304
:1004F900BB010689828A83E0225002E722BBFE0201
:09050900E32289828A83E4932233
:10051200BB010CE58229F582E5833AF583E022509E
:1005220006E92582F8E622BBFE06E92582F8E222E8
:0D053200E58229F582E5833AF583E4932202
:10053F00BB010989828A83F8E028F022500327F74C
:10054F0022BBFE05F8E328F3228A838982F8E4931D
:02055F00282250
:10056100BB010FF8E58229F582E5833AF583E0289E
:10057100F0225009C58229F8E58226F622BBFE0940
:10058100C58229F8E22582F222F8EA2583F583E97A
:030591009328228A
:10059400BB010689828A83F0225002F722BBFE0146
:0205A400F32240
:1005A600F8BB010DE58229F582E5833AF583E8F08B
:1005B600225006E92582C8F622BBFE05E92582C837
:0205C600F2221F
:1005C800EF8DF0A4A8F0CF8CF0A428CE8DF0A42E47
:0205D800FE2201
:1005DA00BC000BBE0029EF8DF084FFADF022E4CC05
:1005EA00F875F008EF2FFFEE33FEEC33FCEE9DECCE
:1005FA00984005FCEE9DFE0FD5F0E9E4CEFD22ED14
:10060A00F8F5F0EE8420D21CFEADF075F008EF2F5D
:10061A00FFED33FD4007985006D5F0F222C398FD4E
:05062A000FD5F0EA22EB
:10062F00C2D5EC30E709B2D5E4C39DFDE49CFCEEE6
:10063F0030E715B2D5E4C39FFFE49EFE1205DAC37F
:10064F00E49DFDE49CFC80031205DA30D507C3E47A
:06065F009FFFE49EFE2255
:10066500BB0110E58229F582E5833AF583E0F5F0D3
:10067500A3E0225009E92582F886F008E622BBFEB0
:100685000AE92582F8E2F5F008E222E5832AF583F6
:08069500E993F5F0A3E99322BB
:10069D00BB010DC58229C582C5833AC583020744B6
:1006AD005011C58229F808E5F026F618F5F0E58217
:1006BD0036F622BBFE11C58229F808E225F0F5F0C9
:1006CD00F218E23582F222F8E58229F582E5832AD5
:0D06DD00F58374019325F0F5F0E4933822C5
:1006EA00BB010A89828A83F0E5F0A3F0225006F75B
:0F06FA0009A7F01922BBFE06F3E5F009F3192258
:10070900F8BB0111E58229F582E5833AF583E8F022
:10071900E5F0A3F0225009E92582C8F608A6F022DF
:0D072900BBFE09E92582C8F2E5F008F222C6
:0E073600C3E49FFFE49EFEE49DFDE49CFC22D4
:10128000021C1CE493A3F8E493A34003F68001F24C
:1012900008DFF48029E493A3F85407240CC8C3336F
:1012A000C4540F4420C8834004F456800146F6DF3E
:1012B000E4800B0102040810204080901E7EE47E32
:1012C000019360BCA3FF543F30E509541FFEE49333
:1012D000A360010ECF54C025E060A840B8E493A3FA
:1012E000FAE493A3F8E493A3C8C582C8CAC583CA25
:1012F000F0A3C8C582C8CAC583CADFE9DEE780BEDD
:011E8700005A
:10074400C5F0F8A3E028F0C5F0F8E5821582700240
:060754001583E038F022DD
:00000001FF
